{
  "_format": "hh-sol-artifact-1",
  "contractName": "NftFactoryV1",
  "sourceName": "contracts/NftFactoryV1.sol",
  "abi": [
    {
      "inputs": [
        {
          "internalType": "string",
          "name": "_name",
          "type": "string"
        },
        {
          "internalType": "string",
          "name": "_symbol",
          "type": "string"
        }
      ],
      "stateMutability": "nonpayable",
      "type": "constructor"
    },
    {
      "anonymous": false,
      "inputs": [
        {
          "indexed": true,
          "internalType": "address",
          "name": "owner",
          "type": "address"
        },
        {
          "indexed": true,
          "internalType": "address",
          "name": "approved",
          "type": "address"
        },
        {
          "indexed": true,
          "internalType": "uint256",
          "name": "tokenId",
          "type": "uint256"
        }
      ],
      "name": "Approval",
      "type": "event"
    },
    {
      "anonymous": false,
      "inputs": [
        {
          "indexed": true,
          "internalType": "address",
          "name": "owner",
          "type": "address"
        },
        {
          "indexed": true,
          "internalType": "address",
          "name": "operator",
          "type": "address"
        },
        {
          "indexed": false,
          "internalType": "bool",
          "name": "approved",
          "type": "bool"
        }
      ],
      "name": "ApprovalForAll",
      "type": "event"
    },
    {
      "anonymous": false,
      "inputs": [
        {
          "indexed": true,
          "internalType": "address",
          "name": "previousOwner",
          "type": "address"
        },
        {
          "indexed": true,
          "internalType": "address",
          "name": "newOwner",
          "type": "address"
        }
      ],
      "name": "OwnershipTransferred",
      "type": "event"
    },
    {
      "anonymous": false,
      "inputs": [
        {
          "indexed": false,
          "internalType": "address",
          "name": "account",
          "type": "address"
        }
      ],
      "name": "Paused",
      "type": "event"
    },
    {
      "anonymous": false,
      "inputs": [
        {
          "indexed": true,
          "internalType": "address",
          "name": "from",
          "type": "address"
        },
        {
          "indexed": true,
          "internalType": "address",
          "name": "to",
          "type": "address"
        },
        {
          "indexed": true,
          "internalType": "uint256",
          "name": "tokenId",
          "type": "uint256"
        }
      ],
      "name": "Transfer",
      "type": "event"
    },
    {
      "anonymous": false,
      "inputs": [
        {
          "indexed": false,
          "internalType": "address",
          "name": "account",
          "type": "address"
        }
      ],
      "name": "Unpaused",
      "type": "event"
    },
    {
      "inputs": [
        {
          "internalType": "address",
          "name": "_minter",
          "type": "address"
        }
      ],
      "name": "addMinterRole",
      "outputs": [],
      "stateMutability": "nonpayable",
      "type": "function"
    },
    {
      "inputs": [
        {
          "internalType": "address",
          "name": "to",
          "type": "address"
        },
        {
          "internalType": "uint256",
          "name": "tokenId",
          "type": "uint256"
        }
      ],
      "name": "approve",
      "outputs": [],
      "stateMutability": "nonpayable",
      "type": "function"
    },
    {
      "inputs": [
        {
          "internalType": "address",
          "name": "owner",
          "type": "address"
        }
      ],
      "name": "balanceOf",
      "outputs": [
        {
          "internalType": "uint256",
          "name": "",
          "type": "uint256"
        }
      ],
      "stateMutability": "view",
      "type": "function"
    },
    {
      "inputs": [],
      "name": "canTransfer",
      "outputs": [
        {
          "internalType": "bool",
          "name": "_status",
          "type": "bool"
        }
      ],
      "stateMutability": "view",
      "type": "function"
    },
    {
      "inputs": [
        {
          "internalType": "uint256",
          "name": "tokenId",
          "type": "uint256"
        }
      ],
      "name": "getApproved",
      "outputs": [
        {
          "internalType": "address",
          "name": "",
          "type": "address"
        }
      ],
      "stateMutability": "view",
      "type": "function"
    },
    {
      "inputs": [
        {
          "internalType": "address",
          "name": "owner_",
          "type": "address"
        }
      ],
      "name": "getCredentials",
      "outputs": [
        {
          "internalType": "uint256[]",
          "name": "",
          "type": "uint256[]"
        }
      ],
      "stateMutability": "view",
      "type": "function"
    },
    {
      "inputs": [
        {
          "internalType": "uint256",
          "name": "credential_",
          "type": "uint256"
        }
      ],
      "name": "getIdentifiers",
      "outputs": [
        {
          "internalType": "bytes4",
          "name": "",
          "type": "bytes4"
        }
      ],
      "stateMutability": "view",
      "type": "function"
    },
    {
      "inputs": [
        {
          "internalType": "address",
          "name": "owner",
          "type": "address"
        },
        {
          "internalType": "address",
          "name": "operator",
          "type": "address"
        }
      ],
      "name": "isApprovedForAll",
      "outputs": [
        {
          "internalType": "bool",
          "name": "",
          "type": "bool"
        }
      ],
      "stateMutability": "view",
      "type": "function"
    },
    {
      "inputs": [
        {
          "internalType": "address",
          "name": "to_",
          "type": "address"
        },
        {
          "internalType": "string",
          "name": "tokenURI_",
          "type": "string"
        },
        {
          "internalType": "bytes4",
          "name": "credentialIdentifier",
          "type": "bytes4"
        }
      ],
      "name": "mintAnItem",
      "outputs": [
        {
          "internalType": "uint256",
          "name": "",
          "type": "uint256"
        }
      ],
      "stateMutability": "nonpayable",
      "type": "function"
    },
    {
      "inputs": [],
      "name": "name",
      "outputs": [
        {
          "internalType": "string",
          "name": "",
          "type": "string"
        }
      ],
      "stateMutability": "view",
      "type": "function"
    },
    {
      "inputs": [],
      "name": "owner",
      "outputs": [
        {
          "internalType": "address",
          "name": "",
          "type": "address"
        }
      ],
      "stateMutability": "view",
      "type": "function"
    },
    {
      "inputs": [
        {
          "internalType": "uint256",
          "name": "tokenId",
          "type": "uint256"
        }
      ],
      "name": "ownerOf",
      "outputs": [
        {
          "internalType": "address",
          "name": "",
          "type": "address"
        }
      ],
      "stateMutability": "view",
      "type": "function"
    },
    {
      "inputs": [],
      "name": "pause",
      "outputs": [],
      "stateMutability": "nonpayable",
      "type": "function"
    },
    {
      "inputs": [],
      "name": "paused",
      "outputs": [
        {
          "internalType": "bool",
          "name": "",
          "type": "bool"
        }
      ],
      "stateMutability": "view",
      "type": "function"
    },
    {
      "inputs": [
        {
          "internalType": "address",
          "name": "_minter",
          "type": "address"
        }
      ],
      "name": "removeMinterRole",
      "outputs": [],
      "stateMutability": "nonpayable",
      "type": "function"
    },
    {
      "inputs": [],
      "name": "renounceOwnership",
      "outputs": [],
      "stateMutability": "nonpayable",
      "type": "function"
    },
    {
      "inputs": [
        {
          "internalType": "address",
          "name": "from",
          "type": "address"
        },
        {
          "internalType": "address",
          "name": "to",
          "type": "address"
        },
        {
          "internalType": "uint256",
          "name": "tokenId",
          "type": "uint256"
        }
      ],
      "name": "safeTransferFrom",
      "outputs": [],
      "stateMutability": "nonpayable",
      "type": "function"
    },
    {
      "inputs": [
        {
          "internalType": "address",
          "name": "from",
          "type": "address"
        },
        {
          "internalType": "address",
          "name": "to",
          "type": "address"
        },
        {
          "internalType": "uint256",
          "name": "tokenId",
          "type": "uint256"
        },
        {
          "internalType": "bytes",
          "name": "_data",
          "type": "bytes"
        }
      ],
      "name": "safeTransferFrom",
      "outputs": [],
      "stateMutability": "nonpayable",
      "type": "function"
    },
    {
      "inputs": [
        {
          "internalType": "address",
          "name": "operator",
          "type": "address"
        },
        {
          "internalType": "bool",
          "name": "approved",
          "type": "bool"
        }
      ],
      "name": "setApprovalForAll",
      "outputs": [],
      "stateMutability": "nonpayable",
      "type": "function"
    },
    {
      "inputs": [
        {
          "internalType": "bytes4",
          "name": "interfaceId",
          "type": "bytes4"
        }
      ],
      "name": "supportsInterface",
      "outputs": [
        {
          "internalType": "bool",
          "name": "",
          "type": "bool"
        }
      ],
      "stateMutability": "view",
      "type": "function"
    },
    {
      "inputs": [],
      "name": "symbol",
      "outputs": [
        {
          "internalType": "string",
          "name": "",
          "type": "string"
        }
      ],
      "stateMutability": "view",
      "type": "function"
    },
    {
      "inputs": [
        {
          "internalType": "uint256",
          "name": "tokenId",
          "type": "uint256"
        }
      ],
      "name": "tokenURI",
      "outputs": [
        {
          "internalType": "string",
          "name": "",
          "type": "string"
        }
      ],
      "stateMutability": "view",
      "type": "function"
    },
    {
      "inputs": [
        {
          "internalType": "address",
          "name": "from",
          "type": "address"
        },
        {
          "internalType": "address",
          "name": "to",
          "type": "address"
        },
        {
          "internalType": "uint256",
          "name": "tokenId",
          "type": "uint256"
        }
      ],
      "name": "transferFrom",
      "outputs": [],
      "stateMutability": "nonpayable",
      "type": "function"
    },
    {
      "inputs": [
        {
          "internalType": "address",
          "name": "newOwner",
          "type": "address"
        }
      ],
      "name": "transferOwnership",
      "outputs": [],
      "stateMutability": "nonpayable",
      "type": "function"
    },
    {
      "inputs": [],
      "name": "unPause",
      "outputs": [],
      "stateMutability": "nonpayable",
      "type": "function"
    }
  ],
  "bytecode": "0x60806040523480156200001157600080fd5b5060405162004423380380620044238339818101604052810190620000379190620003ca565b8181816000908051906020019062000051929190620002a8565b5080600190805190602001906200006a929190620002a8565b5050506200008d62000081620000db60201b60201c565b620000e360201b60201c565b6000600760146101000a81548160ff021916908315150217905550620000d2620000bc620001a960201b60201c565b600b620001d360201b620013c61790919060201c565b505050620005ad565b600033905090565b6000600760009054906101000a900473ffffffffffffffffffffffffffffffffffffffff16905081600760006101000a81548173ffffffffffffffffffffffffffffffffffffffff021916908373ffffffffffffffffffffffffffffffffffffffff1602179055508173ffffffffffffffffffffffffffffffffffffffff168173ffffffffffffffffffffffffffffffffffffffff167f8be0079c531659141344cd1fd0a4f28419497f9722a3daafe3b4186f6b6457e060405160405180910390a35050565b6000600760009054906101000a900473ffffffffffffffffffffffffffffffffffffffff16905090565b600062000203836000018373ffffffffffffffffffffffffffffffffffffffff1660001b6200020b60201b60201c565b905092915050565b60006200021f83836200028560201b60201c565b6200027a5782600001829080600181540180825580915050600190039060005260206000200160009091909190915055826000018054905083600101600084815260200190815260200160002081905550600190506200027f565b600090505b92915050565b600080836001016000848152602001908152602001600020541415905092915050565b828054620002b690620004d2565b90600052602060002090601f016020900481019282620002da576000855562000326565b82601f10620002f557805160ff191683800117855562000326565b8280016001018555821562000326579182015b828111156200032557825182559160200191906001019062000308565b5b50905062000335919062000339565b5090565b5b80821115620003545760008160009055506001016200033a565b5090565b60006200036f620003698462000466565b6200043d565b9050828152602081018484840111156200038857600080fd5b620003958482856200049c565b509392505050565b600082601f830112620003af57600080fd5b8151620003c184826020860162000358565b91505092915050565b60008060408385031215620003de57600080fd5b600083015167ffffffffffffffff811115620003f957600080fd5b62000407858286016200039d565b925050602083015167ffffffffffffffff8111156200042557600080fd5b62000433858286016200039d565b9150509250929050565b6000620004496200045c565b905062000457828262000508565b919050565b6000604051905090565b600067ffffffffffffffff8211156200048457620004836200056d565b5b6200048f826200059c565b9050602081019050919050565b60005b83811015620004bc5780820151818401526020810190506200049f565b83811115620004cc576000848401525b50505050565b60006002820490506001821680620004eb57607f821691505b602082108114156200050257620005016200053e565b5b50919050565b62000513826200059c565b810181811067ffffffffffffffff821117156200053557620005346200056d565b5b80604052505050565b7f4e487b7100000000000000000000000000000000000000000000000000000000600052602260045260246000fd5b7f4e487b7100000000000000000000000000000000000000000000000000000000600052604160045260246000fd5b6000601f19601f8301169050919050565b613e6680620005bd6000396000f3fe608060405234801561001057600080fd5b50600436106101735760003560e01c806384270608116100de578063b00e99e311610097578063df68c1a211610071578063df68c1a214610448578063e985e9c514610466578063f2fde38b14610496578063f7b188a5146104b257610173565b8063b00e99e3146103cc578063b88d4fde146103fc578063c87b56dd1461041857610173565b8063842706081461031e5780638456cb591461034e5780638da5cb5b1461035857806395d89b4114610376578063a22cb46514610394578063adbf3776146103b057610173565b80634cb9705c116101305780634cb9705c1461024a57806354f1e1261461027a5780635c975abb146102965780636352211e146102b457806370a08231146102e4578063715018a61461031457610173565b806301ffc9a71461017857806306fdde03146101a8578063081812fc146101c6578063095ea7b3146101f657806323b872dd1461021257806342842e0e1461022e575b600080fd5b610192600480360381019061018d9190612aa3565b6104bc565b60405161019f9190613054565b60405180910390f35b6101b061059e565b6040516101bd919061308a565b60405180910390f35b6101e060048036038101906101db9190612af5565b610630565b6040516101ed9190612fcb565b60405180910390f35b610210600480360381019061020b9190612a67565b6106b5565b005b61022c600480360381019061022791906128fa565b6107cd565b005b610248600480360381019061024391906128fa565b61082d565b005b610264600480360381019061025f9190612af5565b61084d565b604051610271919061306f565b60405180910390f35b610294600480360381019061028f9190612895565b610877565b005b61029e610928565b6040516102ab9190613054565b60405180910390f35b6102ce60048036038101906102c99190612af5565b61093f565b6040516102db9190612fcb565b60405180910390f35b6102fe60048036038101906102f99190612895565b6109f1565b60405161030b919061338c565b60405180910390f35b61031c610aa9565b005b61033860048036038101906103339190612895565b610b31565b6040516103459190613032565b60405180910390f35b610356610c4d565b005b610360610cd3565b60405161036d9190612fcb565b60405180910390f35b61037e610cfd565b60405161038b919061308a565b60405180910390f35b6103ae60048036038101906103a991906129c4565b610d8f565b005b6103ca60048036038101906103c59190612895565b610da5565b005b6103e660048036038101906103e19190612a00565b610e8b565b6040516103f3919061338c565b60405180910390f35b61041660048036038101906104119190612949565b610fac565b005b610432600480360381019061042d9190612af5565b61100e565b60405161043f919061308a565b60405180910390f35b610450611160565b60405161045d9190613054565b60405180910390f35b610480600480360381019061047b91906128be565b6111b4565b60405161048d9190613054565b60405180910390f35b6104b060048036038101906104ab9190612895565b611248565b005b6104ba611340565b005b60007f80ac58cd000000000000000000000000000000000000000000000000000000007bffffffffffffffffffffffffffffffffffffffffffffffffffffffff1916827bffffffffffffffffffffffffffffffffffffffffffffffffffffffff1916148061058757507f5b5e139f000000000000000000000000000000000000000000000000000000007bffffffffffffffffffffffffffffffffffffffffffffffffffffffff1916827bffffffffffffffffffffffffffffffffffffffffffffffffffffffff1916145b806105975750610596826113f6565b5b9050919050565b6060600080546105ad9061361b565b80601f01602080910402602001604051908101604052809291908181526020018280546105d99061361b565b80156106265780601f106105fb57610100808354040283529160200191610626565b820191906000526020600020905b81548152906001019060200180831161060957829003601f168201915b5050505050905090565b600061063b82611460565b61067a576040517f08c379a0000000000000000000000000000000000000000000000000000000008152600401610671906132cc565b60405180910390fd5b6004600083815260200190815260200160002060009054906101000a900473ffffffffffffffffffffffffffffffffffffffff169050919050565b60006106c08261093f565b90508073ffffffffffffffffffffffffffffffffffffffff168373ffffffffffffffffffffffffffffffffffffffff161415610731576040517f08c379a00000000000000000000000000000000000000000000000000000000081526004016107289061334c565b60405180910390fd5b8073ffffffffffffffffffffffffffffffffffffffff166107506114cc565b73ffffffffffffffffffffffffffffffffffffffff16148061077f575061077e816107796114cc565b6111b4565b5b6107be576040517f08c379a00000000000000000000000000000000000000000000000000000000081526004016107b5906131ec565b60405180910390fd5b6107c883836114d4565b505050565b6107de6107d86114cc565b8261158d565b61081d576040517f08c379a00000000000000000000000000000000000000000000000000000000081526004016108149061336c565b60405180910390fd5b61082883838361166b565b505050565b61084883838360405180602001604052806000815250610fac565b505050565b6000600a600083815260200190815260200160002060009054906101000a900460e01b9050919050565b61087f6114cc565b73ffffffffffffffffffffffffffffffffffffffff1661089d610cd3565b73ffffffffffffffffffffffffffffffffffffffff16146108f3576040517f08c379a00000000000000000000000000000000000000000000000000000000081526004016108ea906132ec565b60405180910390fd5b61090781600b6118c790919063ffffffff16565b61091057600080fd5b61092481600b6118f790919063ffffffff16565b5050565b6000600760149054906101000a900460ff16905090565b6000806002600084815260200190815260200160002060009054906101000a900473ffffffffffffffffffffffffffffffffffffffff169050600073ffffffffffffffffffffffffffffffffffffffff168173ffffffffffffffffffffffffffffffffffffffff1614156109e8576040517f08c379a00000000000000000000000000000000000000000000000000000000081526004016109df9061322c565b60405180910390fd5b80915050919050565b60008073ffffffffffffffffffffffffffffffffffffffff168273ffffffffffffffffffffffffffffffffffffffff161415610a62576040517f08c379a0000000000000000000000000000000000000000000000000000000008152600401610a599061320c565b60405180910390fd5b600360008373ffffffffffffffffffffffffffffffffffffffff1673ffffffffffffffffffffffffffffffffffffffff168152602001908152602001600020549050919050565b610ab16114cc565b73ffffffffffffffffffffffffffffffffffffffff16610acf610cd3565b73ffffffffffffffffffffffffffffffffffffffff1614610b25576040517f08c379a0000000000000000000000000000000000000000000000000000000008152600401610b1c906132ec565b60405180910390fd5b610b2f6000611927565b565b60606000600960008473ffffffffffffffffffffffffffffffffffffffff1673ffffffffffffffffffffffffffffffffffffffff1681526020019081526020016000208054905011610bb8576040517f08c379a0000000000000000000000000000000000000000000000000000000008152600401610baf9061316c565b60405180910390fd5b600960008373ffffffffffffffffffffffffffffffffffffffff1673ffffffffffffffffffffffffffffffffffffffff168152602001908152602001600020805480602002602001604051908101604052809291908181526020018280548015610c4157602002820191906000526020600020905b815481526020019060010190808311610c2d575b50505050509050919050565b610c556114cc565b73ffffffffffffffffffffffffffffffffffffffff16610c73610cd3565b73ffffffffffffffffffffffffffffffffffffffff1614610cc9576040517f08c379a0000000000000000000000000000000000000000000000000000000008152600401610cc0906132ec565b60405180910390fd5b610cd16119ed565b565b6000600760009054906101000a900473ffffffffffffffffffffffffffffffffffffffff16905090565b606060018054610d0c9061361b565b80601f0160208091040260200160405190810160405280929190818152602001828054610d389061361b565b8015610d855780601f10610d5a57610100808354040283529160200191610d85565b820191906000526020600020905b815481529060010190602001808311610d6857829003601f168201915b5050505050905090565b610da1610d9a6114cc565b8383611a90565b5050565b610dad6114cc565b73ffffffffffffffffffffffffffffffffffffffff16610dcb610cd3565b73ffffffffffffffffffffffffffffffffffffffff1614610e21576040517f08c379a0000000000000000000000000000000000000000000000000000000008152600401610e18906132ec565b60405180910390fd5b3073ffffffffffffffffffffffffffffffffffffffff168173ffffffffffffffffffffffffffffffffffffffff161415610e5a57600080fd5b610e6e81600b6118c790919063ffffffff16565b610e8857610e8681600b6113c690919063ffffffff16565b505b50565b6000610ea133600b6118c790919063ffffffff16565b610ee0576040517f08c379a0000000000000000000000000000000000000000000000000000000008152600401610ed7906132ac565b60405180910390fd5b610eea6008611bfd565b6000610ef66008611c13565b9050610f028582611c21565b610f0c8185611c3f565b600960008673ffffffffffffffffffffffffffffffffffffffff1673ffffffffffffffffffffffffffffffffffffffff16815260200190815260200160002081908060018154018082558091505060019003906000526020600020016000909190919091505582600a600083815260200190815260200160002060006101000a81548163ffffffff021916908360e01c0217905550809150509392505050565b610fbd610fb76114cc565b8361158d565b610ffc576040517f08c379a0000000000000000000000000000000000000000000000000000000008152600401610ff39061336c565b60405180910390fd5b61100884848484611cb3565b50505050565b606061101982611460565b611058576040517f08c379a000000000000000000000000000000000000000000000000000000000815260040161104f9061328c565b60405180910390fd5b60006006600084815260200190815260200160002080546110789061361b565b80601f01602080910402602001604051908101604052809291908181526020018280546110a49061361b565b80156110f15780601f106110c6576101008083540402835291602001916110f1565b820191906000526020600020905b8154815290600101906020018083116110d457829003601f168201915b505050505090506000611102611d0f565b905060008151141561111857819250505061115b565b60008251111561114d578082604051602001611135929190612fa7565b6040516020818303038152906040529250505061115b565b61115684611d26565b925050505b919050565b600061116a610928565b15806111af5750611179610cd3565b73ffffffffffffffffffffffffffffffffffffffff166111976114cc565b73ffffffffffffffffffffffffffffffffffffffff16145b905090565b6000600560008473ffffffffffffffffffffffffffffffffffffffff1673ffffffffffffffffffffffffffffffffffffffff16815260200190815260200160002060008373ffffffffffffffffffffffffffffffffffffffff1673ffffffffffffffffffffffffffffffffffffffff16815260200190815260200160002060009054906101000a900460ff16905092915050565b6112506114cc565b73ffffffffffffffffffffffffffffffffffffffff1661126e610cd3565b73ffffffffffffffffffffffffffffffffffffffff16146112c4576040517f08c379a00000000000000000000000000000000000000000000000000000000081526004016112bb906132ec565b60405180910390fd5b600073ffffffffffffffffffffffffffffffffffffffff168173ffffffffffffffffffffffffffffffffffffffff161415611334576040517f08c379a000000000000000000000000000000000000000000000000000000000815260040161132b906130ec565b60405180910390fd5b61133d81611927565b50565b6113486114cc565b73ffffffffffffffffffffffffffffffffffffffff16611366610cd3565b73ffffffffffffffffffffffffffffffffffffffff16146113bc576040517f08c379a00000000000000000000000000000000000000000000000000000000081526004016113b3906132ec565b60405180910390fd5b6113c4611dcd565b565b60006113ee836000018373ffffffffffffffffffffffffffffffffffffffff1660001b611e6f565b905092915050565b60007f01ffc9a7000000000000000000000000000000000000000000000000000000007bffffffffffffffffffffffffffffffffffffffffffffffffffffffff1916827bffffffffffffffffffffffffffffffffffffffffffffffffffffffff1916149050919050565b60008073ffffffffffffffffffffffffffffffffffffffff166002600084815260200190815260200160002060009054906101000a900473ffffffffffffffffffffffffffffffffffffffff1673ffffffffffffffffffffffffffffffffffffffff1614159050919050565b600033905090565b816004600083815260200190815260200160002060006101000a81548173ffffffffffffffffffffffffffffffffffffffff021916908373ffffffffffffffffffffffffffffffffffffffff160217905550808273ffffffffffffffffffffffffffffffffffffffff166115478361093f565b73ffffffffffffffffffffffffffffffffffffffff167f8c5be1e5ebec7d5bd14f71427d1e84f3dd0314c0f7b2291e5b200ac8c7c3b92560405160405180910390a45050565b600061159882611460565b6115d7576040517f08c379a00000000000000000000000000000000000000000000000000000000081526004016115ce9061318c565b60405180910390fd5b60006115e28361093f565b90508073ffffffffffffffffffffffffffffffffffffffff168473ffffffffffffffffffffffffffffffffffffffff16148061165157508373ffffffffffffffffffffffffffffffffffffffff1661163984610630565b73ffffffffffffffffffffffffffffffffffffffff16145b80611662575061166181856111b4565b5b91505092915050565b8273ffffffffffffffffffffffffffffffffffffffff1661168b8261093f565b73ffffffffffffffffffffffffffffffffffffffff16146116e1576040517f08c379a00000000000000000000000000000000000000000000000000000000081526004016116d89061330c565b60405180910390fd5b600073ffffffffffffffffffffffffffffffffffffffff168273ffffffffffffffffffffffffffffffffffffffff161415611751576040517f08c379a00000000000000000000000000000000000000000000000000000000081526004016117489061312c565b60405180910390fd5b61175c838383611edf565b6117676000826114d4565b6001600360008573ffffffffffffffffffffffffffffffffffffffff1673ffffffffffffffffffffffffffffffffffffffff16815260200190815260200160002060008282546117b79190613531565b925050819055506001600360008473ffffffffffffffffffffffffffffffffffffffff1673ffffffffffffffffffffffffffffffffffffffff168152602001908152602001600020600082825461180e91906134aa565b92505081905550816002600083815260200190815260200160002060006101000a81548173ffffffffffffffffffffffffffffffffffffffff021916908373ffffffffffffffffffffffffffffffffffffffff160217905550808273ffffffffffffffffffffffffffffffffffffffff168473ffffffffffffffffffffffffffffffffffffffff167fddf252ad1be2c89b69c2b068fc378daa952ba7f163c4a11628f55a4df523b3ef60405160405180910390a4505050565b60006118ef836000018373ffffffffffffffffffffffffffffffffffffffff1660001b611f90565b905092915050565b600061191f836000018373ffffffffffffffffffffffffffffffffffffffff1660001b611fb3565b905092915050565b6000600760009054906101000a900473ffffffffffffffffffffffffffffffffffffffff16905081600760006101000a81548173ffffffffffffffffffffffffffffffffffffffff021916908373ffffffffffffffffffffffffffffffffffffffff1602179055508173ffffffffffffffffffffffffffffffffffffffff168173ffffffffffffffffffffffffffffffffffffffff167f8be0079c531659141344cd1fd0a4f28419497f9722a3daafe3b4186f6b6457e060405160405180910390a35050565b6119f5610928565b15611a35576040517f08c379a0000000000000000000000000000000000000000000000000000000008152600401611a2c906131ac565b60405180910390fd5b6001600760146101000a81548160ff0219169083151502179055507f62e78cea01bee320cd4e420270b5ea74000d11b0c9f74754ebdbfc544b05a258611a796114cc565b604051611a869190612fcb565b60405180910390a1565b8173ffffffffffffffffffffffffffffffffffffffff168373ffffffffffffffffffffffffffffffffffffffff161415611aff576040517f08c379a0000000000000000000000000000000000000000000000000000000008152600401611af69061314c565b60405180910390fd5b80600560008573ffffffffffffffffffffffffffffffffffffffff1673ffffffffffffffffffffffffffffffffffffffff16815260200190815260200160002060008473ffffffffffffffffffffffffffffffffffffffff1673ffffffffffffffffffffffffffffffffffffffff16815260200190815260200160002060006101000a81548160ff0219169083151502179055508173ffffffffffffffffffffffffffffffffffffffff168373ffffffffffffffffffffffffffffffffffffffff167f17307eab39ab6107e8899845ad3d59bd9653f200f220920489ca2b5937696c3183604051611bf09190613054565b60405180910390a3505050565b6001816000016000828254019250508190555050565b600081600001549050919050565b611c3b828260405180602001604052806000815250612139565b5050565b611c4882611460565b611c87576040517f08c379a0000000000000000000000000000000000000000000000000000000008152600401611c7e9061324c565b60405180910390fd5b80600660008481526020019081526020016000209080519060200190611cae9291906126b9565b505050565b611cbe84848461166b565b611cca84848484612194565b611d09576040517f08c379a0000000000000000000000000000000000000000000000000000000008152600401611d00906130cc565b60405180910390fd5b50505050565b606060405180602001604052806000815250905090565b6060611d3182611460565b611d70576040517f08c379a0000000000000000000000000000000000000000000000000000000008152600401611d679061332c565b60405180910390fd5b6000611d7a611d0f565b90506000815111611d9a5760405180602001604052806000815250611dc5565b80611da48461232b565b604051602001611db5929190612fa7565b6040516020818303038152906040525b915050919050565b611dd5610928565b611e14576040517f08c379a0000000000000000000000000000000000000000000000000000000008152600401611e0b906130ac565b60405180910390fd5b6000600760146101000a81548160ff0219169083151502179055507f5db9ee0a495bf2e6ff9c91a7834c1ba4fdd244a5e8aa4e537bd38aeae4b073aa611e586114cc565b604051611e659190612fcb565b60405180910390a1565b6000611e7b8383611f90565b611ed4578260000182908060018154018082558091505060019003906000526020600020016000909190919091505582600001805490508360010160008481526020019081526020016000208190555060019050611ed9565b600090505b92915050565b611ee7610928565b15611f8b57611ef4610cd3565b73ffffffffffffffffffffffffffffffffffffffff16611f126114cc565b73ffffffffffffffffffffffffffffffffffffffff161480611f4b5750611f4a611f3a6114cc565b600b6118c790919063ffffffff16565b5b611f8a576040517f08c379a0000000000000000000000000000000000000000000000000000000008152600401611f81906131cc565b60405180910390fd5b5b505050565b600080836001016000848152602001908152602001600020541415905092915050565b6000808360010160008481526020019081526020016000205490506000811461212d576000600182611fe59190613531565b9050600060018660000180549050611ffd9190613531565b90508181146120b8576000866000018281548110612044577f4e487b7100000000000000000000000000000000000000000000000000000000600052603260045260246000fd5b906000526020600020015490508087600001848154811061208e577f4e487b7100000000000000000000000000000000000000000000000000000000600052603260045260246000fd5b90600052602060002001819055508387600101600083815260200190815260200160002081905550505b856000018054806120f2577f4e487b7100000000000000000000000000000000000000000000000000000000600052603160045260246000fd5b600190038181906000526020600020016000905590558560010160008681526020019081526020016000206000905560019350505050612133565b60009150505b92915050565b61214383836124d8565b6121506000848484612194565b61218f576040517f08c379a0000000000000000000000000000000000000000000000000000000008152600401612186906130cc565b60405180910390fd5b505050565b60006121b58473ffffffffffffffffffffffffffffffffffffffff166126a6565b1561231e578373ffffffffffffffffffffffffffffffffffffffff1663150b7a026121de6114cc565b8786866040518563ffffffff1660e01b81526004016122009493929190612fe6565b602060405180830381600087803b15801561221a57600080fd5b505af192505050801561224b57506040513d601f19601f820116820180604052508101906122489190612acc565b60015b6122ce573d806000811461227b576040519150601f19603f3d011682016040523d82523d6000602084013e612280565b606091505b506000815114156122c6576040517f08c379a00000000000000000000000000000000000000000000000000000000081526004016122bd906130cc565b60405180910390fd5b805181602001fd5b63150b7a0260e01b7bffffffffffffffffffffffffffffffffffffffffffffffffffffffff1916817bffffffffffffffffffffffffffffffffffffffffffffffffffffffff191614915050612323565b600190505b949350505050565b60606000821415612373576040518060400160405280600181526020017f300000000000000000000000000000000000000000000000000000000000000081525090506124d3565b600082905060005b600082146123a557808061238e9061367e565b915050600a8261239e9190613500565b915061237b565b60008167ffffffffffffffff8111156123e7577f4e487b7100000000000000000000000000000000000000000000000000000000600052604160045260246000fd5b6040519080825280601f01601f1916602001820160405280156124195781602001600182028036833780820191505090505b5090505b600085146124cc576001826124329190613531565b9150600a8561244191906136c7565b603061244d91906134aa565b60f81b818381518110612489577f4e487b7100000000000000000000000000000000000000000000000000000000600052603260045260246000fd5b60200101907effffffffffffffffffffffffffffffffffffffffffffffffffffffffffffff1916908160001a905350600a856124c59190613500565b945061241d565b8093505050505b919050565b600073ffffffffffffffffffffffffffffffffffffffff168273ffffffffffffffffffffffffffffffffffffffff161415612548576040517f08c379a000000000000000000000000000000000000000000000000000000000815260040161253f9061326c565b60405180910390fd5b61255181611460565b15612591576040517f08c379a00000000000000000000000000000000000000000000000000000000081526004016125889061310c565b60405180910390fd5b61259d60008383611edf565b6001600360008473ffffffffffffffffffffffffffffffffffffffff1673ffffffffffffffffffffffffffffffffffffffff16815260200190815260200160002060008282546125ed91906134aa565b92505081905550816002600083815260200190815260200160002060006101000a81548173ffffffffffffffffffffffffffffffffffffffff021916908373ffffffffffffffffffffffffffffffffffffffff160217905550808273ffffffffffffffffffffffffffffffffffffffff16600073ffffffffffffffffffffffffffffffffffffffff167fddf252ad1be2c89b69c2b068fc378daa952ba7f163c4a11628f55a4df523b3ef60405160405180910390a45050565b600080823b905060008111915050919050565b8280546126c59061361b565b90600052602060002090601f0160209004810192826126e7576000855561272e565b82601f1061270057805160ff191683800117855561272e565b8280016001018555821561272e579182015b8281111561272d578251825591602001919060010190612712565b5b50905061273b919061273f565b5090565b5b80821115612758576000816000905550600101612740565b5090565b600061276f61276a846133cc565b6133a7565b90508281526020810184848401111561278757600080fd5b6127928482856135d9565b509392505050565b60006127ad6127a8846133fd565b6133a7565b9050828152602081018484840111156127c557600080fd5b6127d08482856135d9565b509392505050565b6000813590506127e781613dd4565b92915050565b6000813590506127fc81613deb565b92915050565b60008135905061281181613e02565b92915050565b60008151905061282681613e02565b92915050565b600082601f83011261283d57600080fd5b813561284d84826020860161275c565b91505092915050565b600082601f83011261286757600080fd5b813561287784826020860161279a565b91505092915050565b60008135905061288f81613e19565b92915050565b6000602082840312156128a757600080fd5b60006128b5848285016127d8565b91505092915050565b600080604083850312156128d157600080fd5b60006128df858286016127d8565b92505060206128f0858286016127d8565b9150509250929050565b60008060006060848603121561290f57600080fd5b600061291d868287016127d8565b935050602061292e868287016127d8565b925050604061293f86828701612880565b9150509250925092565b6000806000806080858703121561295f57600080fd5b600061296d878288016127d8565b945050602061297e878288016127d8565b935050604061298f87828801612880565b925050606085013567ffffffffffffffff8111156129ac57600080fd5b6129b88782880161282c565b91505092959194509250565b600080604083850312156129d757600080fd5b60006129e5858286016127d8565b92505060206129f6858286016127ed565b9150509250929050565b600080600060608486031215612a1557600080fd5b6000612a23868287016127d8565b935050602084013567ffffffffffffffff811115612a4057600080fd5b612a4c86828701612856565b9250506040612a5d86828701612802565b9150509250925092565b60008060408385031215612a7a57600080fd5b6000612a88858286016127d8565b9250506020612a9985828601612880565b9150509250929050565b600060208284031215612ab557600080fd5b6000612ac384828501612802565b91505092915050565b600060208284031215612ade57600080fd5b6000612aec84828501612817565b91505092915050565b600060208284031215612b0757600080fd5b6000612b1584828501612880565b91505092915050565b6000612b2a8383612f89565b60208301905092915050565b612b3f81613565565b82525050565b6000612b508261343e565b612b5a818561346c565b9350612b658361342e565b8060005b83811015612b96578151612b7d8882612b1e565b9750612b888361345f565b925050600181019050612b69565b5085935050505092915050565b612bac81613577565b82525050565b612bbb81613583565b82525050565b6000612bcc82613449565b612bd6818561347d565b9350612be68185602086016135e8565b612bef816137b4565b840191505092915050565b6000612c0582613454565b612c0f818561348e565b9350612c1f8185602086016135e8565b612c28816137b4565b840191505092915050565b6000612c3e82613454565b612c48818561349f565b9350612c588185602086016135e8565b80840191505092915050565b6000612c7160148361348e565b9150612c7c826137c5565b602082019050919050565b6000612c9460328361348e565b9150612c9f826137ee565b604082019050919050565b6000612cb760268361348e565b9150612cc28261383d565b604082019050919050565b6000612cda601c8361348e565b9150612ce58261388c565b602082019050919050565b6000612cfd60248361348e565b9150612d08826138b5565b604082019050919050565b6000612d2060198361348e565b9150612d2b82613904565b602082019050919050565b6000612d4360238361348e565b9150612d4e8261392d565b604082019050919050565b6000612d66602c8361348e565b9150612d718261397c565b604082019050919050565b6000612d8960108361348e565b9150612d94826139cb565b602082019050919050565b6000612dac602f8361348e565b9150612db7826139f4565b604082019050919050565b6000612dcf60388361348e565b9150612dda82613a43565b604082019050919050565b6000612df2602a8361348e565b9150612dfd82613a92565b604082019050919050565b6000612e1560298361348e565b9150612e2082613ae1565b604082019050919050565b6000612e38602e8361348e565b9150612e4382613b30565b604082019050919050565b6000612e5b60208361348e565b9150612e6682613b7f565b602082019050919050565b6000612e7e60318361348e565b9150612e8982613ba8565b604082019050919050565b6000612ea1601f8361348e565b9150612eac82613bf7565b602082019050919050565b6000612ec4602c8361348e565b9150612ecf82613c20565b604082019050919050565b6000612ee760208361348e565b9150612ef282613c6f565b602082019050919050565b6000612f0a60298361348e565b9150612f1582613c98565b604082019050919050565b6000612f2d602f8361348e565b9150612f3882613ce7565b604082019050919050565b6000612f5060218361348e565b9150612f5b82613d36565b604082019050919050565b6000612f7360318361348e565b9150612f7e82613d85565b604082019050919050565b612f92816135cf565b82525050565b612fa1816135cf565b82525050565b6000612fb38285612c33565b9150612fbf8284612c33565b91508190509392505050565b6000602082019050612fe06000830184612b36565b92915050565b6000608082019050612ffb6000830187612b36565b6130086020830186612b36565b6130156040830185612f98565b81810360608301526130278184612bc1565b905095945050505050565b6000602082019050818103600083015261304c8184612b45565b905092915050565b60006020820190506130696000830184612ba3565b92915050565b60006020820190506130846000830184612bb2565b92915050565b600060208201905081810360008301526130a48184612bfa565b905092915050565b600060208201905081810360008301526130c581612c64565b9050919050565b600060208201905081810360008301526130e581612c87565b9050919050565b6000602082019050818103600083015261310581612caa565b9050919050565b6000602082019050818103600083015261312581612ccd565b9050919050565b6000602082019050818103600083015261314581612cf0565b9050919050565b6000602082019050818103600083015261316581612d13565b9050919050565b6000602082019050818103600083015261318581612d36565b9050919050565b600060208201905081810360008301526131a581612d59565b9050919050565b600060208201905081810360008301526131c581612d7c565b9050919050565b600060208201905081810360008301526131e581612d9f565b9050919050565b6000602082019050818103600083015261320581612dc2565b9050919050565b6000602082019050818103600083015261322581612de5565b9050919050565b6000602082019050818103600083015261324581612e08565b9050919050565b6000602082019050818103600083015261326581612e2b565b9050919050565b6000602082019050818103600083015261328581612e4e565b9050919050565b600060208201905081810360008301526132a581612e71565b9050919050565b600060208201905081810360008301526132c581612e94565b9050919050565b600060208201905081810360008301526132e581612eb7565b9050919050565b6000602082019050818103600083015261330581612eda565b9050919050565b6000602082019050818103600083015261332581612efd565b9050919050565b6000602082019050818103600083015261334581612f20565b9050919050565b6000602082019050818103600083015261336581612f43565b9050919050565b6000602082019050818103600083015261338581612f66565b9050919050565b60006020820190506133a16000830184612f98565b92915050565b60006133b16133c2565b90506133bd828261364d565b919050565b6000604051905090565b600067ffffffffffffffff8211156133e7576133e6613785565b5b6133f0826137b4565b9050602081019050919050565b600067ffffffffffffffff82111561341857613417613785565b5b613421826137b4565b9050602081019050919050565b6000819050602082019050919050565b600081519050919050565b600081519050919050565b600081519050919050565b6000602082019050919050565b600082825260208201905092915050565b600082825260208201905092915050565b600082825260208201905092915050565b600081905092915050565b60006134b5826135cf565b91506134c0836135cf565b9250827fffffffffffffffffffffffffffffffffffffffffffffffffffffffffffffffff038211156134f5576134f46136f8565b5b828201905092915050565b600061350b826135cf565b9150613516836135cf565b92508261352657613525613727565b5b828204905092915050565b600061353c826135cf565b9150613547836135cf565b92508282101561355a576135596136f8565b5b828203905092915050565b6000613570826135af565b9050919050565b60008115159050919050565b60007fffffffff0000000000000000000000000000000000000000000000000000000082169050919050565b600073ffffffffffffffffffffffffffffffffffffffff82169050919050565b6000819050919050565b82818337600083830152505050565b60005b838110156136065780820151818401526020810190506135eb565b83811115613615576000848401525b50505050565b6000600282049050600182168061363357607f821691505b6020821081141561364757613646613756565b5b50919050565b613656826137b4565b810181811067ffffffffffffffff8211171561367557613674613785565b5b80604052505050565b6000613689826135cf565b91507fffffffffffffffffffffffffffffffffffffffffffffffffffffffffffffffff8214156136bc576136bb6136f8565b5b600182019050919050565b60006136d2826135cf565b91506136dd836135cf565b9250826136ed576136ec613727565b5b828206905092915050565b7f4e487b7100000000000000000000000000000000000000000000000000000000600052601160045260246000fd5b7f4e487b7100000000000000000000000000000000000000000000000000000000600052601260045260246000fd5b7f4e487b7100000000000000000000000000000000000000000000000000000000600052602260045260246000fd5b7f4e487b7100000000000000000000000000000000000000000000000000000000600052604160045260246000fd5b6000601f19601f8301169050919050565b7f5061757361626c653a206e6f7420706175736564000000000000000000000000600082015250565b7f4552433732313a207472616e7366657220746f206e6f6e20455243373231526560008201527f63656976657220696d706c656d656e7465720000000000000000000000000000602082015250565b7f4f776e61626c653a206e6577206f776e657220697320746865207a65726f206160008201527f6464726573730000000000000000000000000000000000000000000000000000602082015250565b7f4552433732313a20746f6b656e20616c7265616479206d696e74656400000000600082015250565b7f4552433732313a207472616e7366657220746f20746865207a65726f2061646460008201527f7265737300000000000000000000000000000000000000000000000000000000602082015250565b7f4552433732313a20617070726f766520746f2063616c6c657200000000000000600082015250565b7f536f727279206e6f2043726564656e7469616c73206f6e20796f75722077616c60008201527f6c65740000000000000000000000000000000000000000000000000000000000602082015250565b7f4552433732313a206f70657261746f7220717565727920666f72206e6f6e657860008201527f697374656e7420746f6b656e0000000000000000000000000000000000000000602082015250565b7f5061757361626c653a2070617573656400000000000000000000000000000000600082015250565b7f4f6e6c7920746865204f776e65722063616e205472616e73666572206f72204d60008201527f696e7420756e74696c2070617573650000000000000000000000000000000000602082015250565b7f4552433732313a20617070726f76652063616c6c6572206973206e6f74206f7760008201527f6e6572206e6f7220617070726f76656420666f7220616c6c0000000000000000602082015250565b7f4552433732313a2062616c616e636520717565727920666f7220746865207a6560008201527f726f206164647265737300000000000000000000000000000000000000000000602082015250565b7f4552433732313a206f776e657220717565727920666f72206e6f6e657869737460008201527f656e7420746f6b656e0000000000000000000000000000000000000000000000602082015250565b7f45524337323155524953746f726167653a2055524920736574206f66206e6f6e60008201527f6578697374656e7420746f6b656e000000000000000000000000000000000000602082015250565b7f4552433732313a206d696e7420746f20746865207a65726f2061646472657373600082015250565b7f45524337323155524953746f726167653a2055524920717565727920666f722060008201527f6e6f6e6578697374656e7420746f6b656e000000000000000000000000000000602082015250565b7f536f72727920796f7520646f6e742068617665206d696e74657220726f6c6500600082015250565b7f4552433732313a20617070726f76656420717565727920666f72206e6f6e657860008201527f697374656e7420746f6b656e0000000000000000000000000000000000000000602082015250565b7f4f776e61626c653a2063616c6c6572206973206e6f7420746865206f776e6572600082015250565b7f4552433732313a207472616e73666572206f6620746f6b656e2074686174206960008201527f73206e6f74206f776e0000000000000000000000000000000000000000000000602082015250565b7f4552433732314d657461646174613a2055524920717565727920666f72206e6f60008201527f6e6578697374656e7420746f6b656e0000000000000000000000000000000000602082015250565b7f4552433732313a20617070726f76616c20746f2063757272656e74206f776e6560008201527f7200000000000000000000000000000000000000000000000000000000000000602082015250565b7f4552433732313a207472616e736665722063616c6c6572206973206e6f74206f60008201527f776e6572206e6f7220617070726f766564000000000000000000000000000000602082015250565b613ddd81613565565b8114613de857600080fd5b50565b613df481613577565b8114613dff57600080fd5b50565b613e0b81613583565b8114613e1657600080fd5b50565b613e22816135cf565b8114613e2d57600080fd5b5056fea26469706673582212208e1ec867a3b668f50e48ced7c8849ad7f68938a99e1c8a18e22f2b0e48eb5be664736f6c63430008040033",
  "linkReferences": {},
  "deployedLinkReferences": {}
}