{
  "_format": "hh-sol-artifact-1",
  "contractName": "FundContractV1",
  "sourceName": "contracts/FundContractV1.sol",
  "abi": [
    {
      "inputs": [
        {
          "internalType": "contract NftFactoryV1",
          "name": "NftFactoryV1_",
          "type": "address"
        }
      ],
      "stateMutability": "payable",
      "type": "constructor"
    },
    {
      "anonymous": false,
      "inputs": [
        {
          "indexed": true,
          "internalType": "address",
          "name": "sender",
          "type": "address"
        },
        {
          "indexed": false,
          "internalType": "uint256",
          "name": "amount",
          "type": "uint256"
        },
        {
          "indexed": false,
          "internalType": "string",
          "name": "message",
          "type": "string"
        }
      ],
      "name": "deposit",
      "type": "event"
    },
    {
      "anonymous": false,
      "inputs": [
        {
          "indexed": true,
          "internalType": "address",
          "name": "to",
          "type": "address"
        },
        {
          "indexed": false,
          "internalType": "uint256",
          "name": "amount",
          "type": "uint256"
        },
        {
          "indexed": false,
          "internalType": "string",
          "name": "message",
          "type": "string"
        }
      ],
      "name": "transfer",
      "type": "event"
    },
    {
      "inputs": [],
      "name": "Name",
      "outputs": [
        {
          "internalType": "string",
          "name": "",
          "type": "string"
        }
      ],
      "stateMutability": "view",
      "type": "function"
    },
    {
      "inputs": [
        {
          "internalType": "string",
          "name": "name_",
          "type": "string"
        },
        {
          "internalType": "string",
          "name": "description_",
          "type": "string"
        },
        {
          "internalType": "uint256",
          "name": "distributionAmountPerTram_",
          "type": "uint256"
        },
        {
          "internalType": "bytes4",
          "name": "credentailsUsed_",
          "type": "bytes4"
        }
      ],
      "name": "createFund",
      "outputs": [
        {
          "internalType": "uint256",
          "name": "",
          "type": "uint256"
        }
      ],
      "stateMutability": "nonpayable",
      "type": "function"
    },
    {
      "inputs": [
        {
          "internalType": "uint256",
          "name": "fundType_",
          "type": "uint256"
        }
      ],
      "name": "depositFund",
      "outputs": [],
      "stateMutability": "payable",
      "type": "function"
    },
    {
      "inputs": [
        {
          "internalType": "uint256[]",
          "name": "credentials_",
          "type": "uint256[]"
        }
      ],
      "name": "evaluavateNFTCredentials",
      "outputs": [
        {
          "internalType": "uint256[]",
          "name": "fundtypes_",
          "type": "uint256[]"
        }
      ],
      "stateMutability": "view",
      "type": "function"
    },
    {
      "inputs": [],
      "name": "getFundDetails",
      "outputs": [
        {
          "components": [
            {
              "internalType": "uint256",
              "name": "fundType",
              "type": "uint256"
            },
            {
              "internalType": "string",
              "name": "name",
              "type": "string"
            },
            {
              "internalType": "string",
              "name": "description",
              "type": "string"
            },
            {
              "internalType": "address",
              "name": "createdBy",
              "type": "address"
            },
            {
              "internalType": "uint256",
              "name": "createdDate",
              "type": "uint256"
            },
            {
              "internalType": "uint256",
              "name": "totalAmountDeposited",
              "type": "uint256"
            },
            {
              "internalType": "uint256",
              "name": "totalAmountDisbursed",
              "type": "uint256"
            },
            {
              "internalType": "uint256",
              "name": "maxDistributableAmountPerTeam",
              "type": "uint256"
            },
            {
              "internalType": "bytes4",
              "name": "credentailsUsed",
              "type": "bytes4"
            }
          ],
          "internalType": "struct FundContractV1.FundDetails[]",
          "name": "",
          "type": "tuple[]"
        }
      ],
      "stateMutability": "view",
      "type": "function"
    },
    {
      "inputs": [
        {
          "internalType": "uint256",
          "name": "credential_",
          "type": "uint256"
        },
        {
          "internalType": "uint256",
          "name": "fundType",
          "type": "uint256"
        }
      ],
      "name": "getFunding",
      "outputs": [],
      "stateMutability": "nonpayable",
      "type": "function"
    },
    {
      "inputs": [],
      "name": "minimumEthToDepoit",
      "outputs": [
        {
          "internalType": "uint256",
          "name": "",
          "type": "uint256"
        }
      ],
      "stateMutability": "view",
      "type": "function"
    },
    {
      "inputs": [],
      "name": "nftFactoryV1",
      "outputs": [
        {
          "internalType": "contract NftFactoryV1",
          "name": "",
          "type": "address"
        }
      ],
      "stateMutability": "view",
      "type": "function"
    }
  ],
  "bytecode": "0x60806040526040518060400160405280600e81526020017f46756e64436f6e747261637456310000000000000000000000000000000000008152506000908051906020019062000051929190620000ca565b50662386f26fc100006003556040516200263f3803806200263f833981810160405281019062000082919062000191565b80600160006101000a81548173ffffffffffffffffffffffffffffffffffffffff021916908373ffffffffffffffffffffffffffffffffffffffff1602179055505062000284565b828054620000d89062000205565b90600052602060002090601f016020900481019282620000fc576000855562000148565b82601f106200011757805160ff191683800117855562000148565b8280016001018555821562000148579182015b82811115620001475782518255916020019190600101906200012a565b5b5090506200015791906200015b565b5090565b5b80821115620001765760008160009055506001016200015c565b5090565b6000815190506200018b816200026a565b92915050565b600060208284031215620001a457600080fd5b6000620001b4848285016200017a565b91505092915050565b6000620001ca82620001e5565b9050919050565b6000620001de82620001bd565b9050919050565b600073ffffffffffffffffffffffffffffffffffffffff82169050919050565b600060028204905060018216806200021e57607f821691505b602082108114156200023557620002346200023b565b5b50919050565b7f4e487b7100000000000000000000000000000000000000000000000000000000600052602260045260246000fd5b6200027581620001d1565b81146200028157600080fd5b50565b6123ab80620002946000396000f3fe60806040526004361061007b5760003560e01c80636143273f1161004e5780636143273f1461012f57806361d1edde1461015a5780638052474d14610197578063c962716f146101c25761007b565b806309b6a4171461008057806336c54dc2146100bd5780635556925c146100e8578063585e5d2014610113575b600080fd5b34801561008c57600080fd5b506100a760048036038101906100a291906118ab565b6101eb565b6040516100b49190611ddb565b60405180910390f35b3480156100c957600080fd5b506100d2610399565b6040516100df9190611d1e565b60405180910390f35b3480156100f457600080fd5b506100fd6103bf565b60405161010a9190611cda565b60405180910390f35b61012d6004803603810190610128919061193e565b610620565b005b34801561013b57600080fd5b50610144610901565b6040516101519190611ddb565b60405180910390f35b34801561016657600080fd5b50610181600480360381019061017c9190611841565b610907565b60405161018e9190611cfc565b60405180910390f35b3480156101a357600080fd5b506101ac610d71565b6040516101b99190611d39565b60405180910390f35b3480156101ce57600080fd5b506101e960048036038101906101e49190611967565b610dff565b005b60006101f760026115ff565b60006102036002611615565b9050600033905060006040518061012001604052808481526020018981526020018881526020018373ffffffffffffffffffffffffffffffffffffffff1681526020014281526020016000815260200160008152602001878152602001867bffffffffffffffffffffffffffffffffffffffffffffffffffffffff1916815250905060048190806001815401808255809150506001900390600052602060002090600902016000909190919091506000820151816000015560208201518160010190805190602001906102d7929190611623565b5060408201518160020190805190602001906102f4929190611623565b5060608201518160030160006101000a81548173ffffffffffffffffffffffffffffffffffffffff021916908373ffffffffffffffffffffffffffffffffffffffff1602179055506080820151816004015560a0820151816005015560c0820151816006015560e082015181600701556101008201518160080160006101000a81548163ffffffff021916908360e01c02179055505050829350505050949350505050565b600160009054906101000a900473ffffffffffffffffffffffffffffffffffffffff1681565b60606004805480602002602001604051908101604052809291908181526020016000905b8282101561061757838290600052602060002090600902016040518061012001604052908160008201548152602001600182018054610421906120cd565b80601f016020809104026020016040519081016040528092919081815260200182805461044d906120cd565b801561049a5780601f1061046f5761010080835404028352916020019161049a565b820191906000526020600020905b81548152906001019060200180831161047d57829003601f168201915b505050505081526020016002820180546104b3906120cd565b80601f01602080910402602001604051908101604052809291908181526020018280546104df906120cd565b801561052c5780601f106105015761010080835404028352916020019161052c565b820191906000526020600020905b81548152906001019060200180831161050f57829003601f168201915b505050505081526020016003820160009054906101000a900473ffffffffffffffffffffffffffffffffffffffff1673ffffffffffffffffffffffffffffffffffffffff1673ffffffffffffffffffffffffffffffffffffffff168152602001600482015481526020016005820154815260200160068201548152602001600782015481526020016008820160009054906101000a900460e01b7bffffffffffffffffffffffffffffffffffffffffffffffffffffffff19167bffffffffffffffffffffffffffffffffffffffffffffffffffffffff191681525050815260200190600101906103e3565b50505050905090565b6003543411610664576040517f08c379a000000000000000000000000000000000000000000000000000000000815260040161065b90611dbb565b60405180910390fd5b6000805b6004805490508110156108365782600482815481106106b0577f4e487b7100000000000000000000000000000000000000000000000000000000600052603260045260246000fd5b9060005260206000209060090201600001541415610823573460048281548110610703577f4e487b7100000000000000000000000000000000000000000000000000000000600052603260045260246000fd5b90600052602060002090600902016005015461071f9190611f75565b60048281548110610759577f4e487b7100000000000000000000000000000000000000000000000000000000600052603260045260246000fd5b906000526020600020906009020160050181905550346006600085815260200190815260200160002060003373ffffffffffffffffffffffffffffffffffffffff1673ffffffffffffffffffffffffffffffffffffffff168152602001908152602001600020546107ca9190611f75565b6006600085815260200190815260200160002060003373ffffffffffffffffffffffffffffffffffffffff1673ffffffffffffffffffffffffffffffffffffffff16815260200190815260200160002081905550600191505b808061082e90612130565b915050610668565b503373ffffffffffffffffffffffffffffffffffffffff167fbfe07da681ac99ed76dd1a5660057097cab44710a3778466c670e90e2cfd4f6934836108b0576040518060400160405280601081526020017f46756e64547970654e6f74466f756e64000000000000000000000000000000008152506108e7565b6040518060400160405280600d81526020017f455448206465706f7369746564000000000000000000000000000000000000008152505b6040516108f5929190611df6565b60405180910390a25050565b60035481565b606060008251905060005b81811015610a8b576000600160009054906101000a900473ffffffffffffffffffffffffffffffffffffffff1673ffffffffffffffffffffffffffffffffffffffff16636352211e868481518110610993577f4e487b7100000000000000000000000000000000000000000000000000000000600052603260045260246000fd5b60200260200101516040518263ffffffff1660e01b81526004016109b79190611ddb565b60206040518083038186803b1580156109cf57600080fd5b505afa1580156109e3573d6000803e3d6000fd5b505050506040513d601f19601f82011682018060405250810190610a079190611818565b90503373ffffffffffffffffffffffffffffffffffffffff168173ffffffffffffffffffffffffffffffffffffffff1614610a77576040517f08c379a0000000000000000000000000000000000000000000000000000000008152600401610a6e90611d9b565b60405180910390fd5b508080610a8390612130565b915050610912565b50600060048054905067ffffffffffffffff811115610ad3577f4e487b7100000000000000000000000000000000000000000000000000000000600052604160045260246000fd5b604051908082528060200260200182016040528015610b015781602001602082028036833780820191505090505b50905060005b82811015610d66576000600160009054906101000a900473ffffffffffffffffffffffffffffffffffffffff1673ffffffffffffffffffffffffffffffffffffffff16634cb9705c878481518110610b88577f4e487b7100000000000000000000000000000000000000000000000000000000600052603260045260246000fd5b60200260200101516040518263ffffffff1660e01b8152600401610bac9190611ddb565b60206040518083038186803b158015610bc457600080fd5b505afa158015610bd8573d6000803e3d6000fd5b505050506040513d601f19601f82011682018060405250810190610bfc9190611882565b905060005b600480549050811015610d515760048181548110610c48577f4e487b7100000000000000000000000000000000000000000000000000000000600052603260045260246000fd5b906000526020600020906009020160080160009054906101000a900460e01b7bffffffffffffffffffffffffffffffffffffffffffffffffffffffff1916827bffffffffffffffffffffffffffffffffffffffffffffffffffffffff19161415610d3e5760048181548110610ce6577f4e487b7100000000000000000000000000000000000000000000000000000000600052603260045260246000fd5b906000526020600020906009020160000154848481518110610d31577f4e487b7100000000000000000000000000000000000000000000000000000000600052603260045260246000fd5b6020026020010181815250505b8080610d4990612130565b915050610c01565b50508080610d5e90612130565b915050610b07565b508092505050919050565b60008054610d7e906120cd565b80601f0160208091040260200160405190810160405280929190818152602001828054610daa906120cd565b8015610df75780601f10610dcc57610100808354040283529160200191610df7565b820191906000526020600020905b815481529060010190602001808311610dda57829003601f168201915b505050505081565b6000600160009054906101000a900473ffffffffffffffffffffffffffffffffffffffff1673ffffffffffffffffffffffffffffffffffffffff16636352211e846040518263ffffffff1660e01b8152600401610e5c9190611ddb565b60206040518083038186803b158015610e7457600080fd5b505afa158015610e88573d6000803e3d6000fd5b505050506040513d601f19601f82011682018060405250810190610eac9190611818565b90503373ffffffffffffffffffffffffffffffffffffffff168173ffffffffffffffffffffffffffffffffffffffff1614610f1c576040517f08c379a0000000000000000000000000000000000000000000000000000000008152600401610f1390611d9b565b60405180910390fd5b6000600160009054906101000a900473ffffffffffffffffffffffffffffffffffffffff1673ffffffffffffffffffffffffffffffffffffffff16634cb9705c856040518263ffffffff1660e01b8152600401610f799190611ddb565b60206040518083038186803b158015610f9157600080fd5b505afa158015610fa5573d6000803e3d6000fd5b505050506040513d601f19601f82011682018060405250810190610fc99190611882565b905060005b6004805490508110156115f85760048181548110611015577f4e487b7100000000000000000000000000000000000000000000000000000000600052603260045260246000fd5b9060005260206000209060090201600001548414156115e55760048181548110611068577f4e487b7100000000000000000000000000000000000000000000000000000000600052603260045260246000fd5b906000526020600020906009020160080160009054906101000a900460e01b7bffffffffffffffffffffffffffffffffffffffffffffffffffffffff1916827bffffffffffffffffffffffffffffffffffffffffffffffffffffffff191614156115e4576000600560006004848154811061110c577f4e487b7100000000000000000000000000000000000000000000000000000000600052603260045260246000fd5b906000526020600020906009020160000154815260200190815260200160002060003373ffffffffffffffffffffffffffffffffffffffff1673ffffffffffffffffffffffffffffffffffffffff16815260200190815260200160002054146111aa576040517f08c379a00000000000000000000000000000000000000000000000000000000081526004016111a190611d7b565b60405180910390fd5b600481815481106111e4577f4e487b7100000000000000000000000000000000000000000000000000000000600052603260045260246000fd5b90600052602060002090600902016007015460048281548110611230577f4e487b7100000000000000000000000000000000000000000000000000000000600052603260045260246000fd5b9060005260206000209060090201600601546004838154811061127c577f4e487b7100000000000000000000000000000000000000000000000000000000600052603260045260246000fd5b9060005260206000209060090201600501546112989190611fcb565b116112d8576040517f08c379a00000000000000000000000000000000000000000000000000000000081526004016112cf90611d5b565b60405180910390fd5b3373ffffffffffffffffffffffffffffffffffffffff166108fc6004838154811061132c577f4e487b7100000000000000000000000000000000000000000000000000000000600052603260045260246000fd5b9060005260206000209060090201600701549081150290604051600060405180830381858888f19350505050158015611369573d6000803e3d6000fd5b50600481815481106113a4577f4e487b7100000000000000000000000000000000000000000000000000000000600052603260045260246000fd5b906000526020600020906009020160070154600482815481106113f0577f4e487b7100000000000000000000000000000000000000000000000000000000600052603260045260246000fd5b90600052602060002090600902016006015461140c9190611f75565b60048281548110611446577f4e487b7100000000000000000000000000000000000000000000000000000000600052603260045260246000fd5b90600052602060002090600902016006018190555060048181548110611495577f4e487b7100000000000000000000000000000000000000000000000000000000600052603260045260246000fd5b90600052602060002090600902016007015460056000600484815481106114e5577f4e487b7100000000000000000000000000000000000000000000000000000000600052603260045260246000fd5b906000526020600020906009020160000154815260200190815260200160002060003373ffffffffffffffffffffffffffffffffffffffff1673ffffffffffffffffffffffffffffffffffffffff168152602001908152602001600020819055503373ffffffffffffffffffffffffffffffffffffffff167f56b8c7241bbf92c9d8c0ee316eb6ab249fec0ac956bef8541ec03650498526b2600483815481106115b8577f4e487b7100000000000000000000000000000000000000000000000000000000600052603260045260246000fd5b9060005260206000209060090201600701546040516115d79190611e26565b60405180910390a26115f8565b5b80806115f090612130565b915050610fce565b5050505050565b6001816000016000828254019250508190555050565b600081600001549050919050565b82805461162f906120cd565b90600052602060002090601f0160209004810192826116515760008555611698565b82601f1061166a57805160ff1916838001178555611698565b82800160010185558215611698579182015b8281111561169757825182559160200191906001019061167c565b5b5090506116a591906116a9565b5090565b5b808211156116c25760008160009055506001016116aa565b5090565b60006116d96116d484611e79565b611e54565b905080838252602082019050828560208602820111156116f857600080fd5b60005b85811015611728578161170e8882611803565b8452602084019350602083019250506001810190506116fb565b5050509392505050565b600061174561174084611ea5565b611e54565b90508281526020810184848401111561175d57600080fd5b61176884828561208b565b509392505050565b60008151905061177f81612330565b92915050565b600082601f83011261179657600080fd5b81356117a68482602086016116c6565b91505092915050565b6000813590506117be81612347565b92915050565b6000815190506117d381612347565b92915050565b600082601f8301126117ea57600080fd5b81356117fa848260208601611732565b91505092915050565b6000813590506118128161235e565b92915050565b60006020828403121561182a57600080fd5b600061183884828501611770565b91505092915050565b60006020828403121561185357600080fd5b600082013567ffffffffffffffff81111561186d57600080fd5b61187984828501611785565b91505092915050565b60006020828403121561189457600080fd5b60006118a2848285016117c4565b91505092915050565b600080600080608085870312156118c157600080fd5b600085013567ffffffffffffffff8111156118db57600080fd5b6118e7878288016117d9565b945050602085013567ffffffffffffffff81111561190457600080fd5b611910878288016117d9565b935050604061192187828801611803565b9250506060611932878288016117af565b91505092959194509250565b60006020828403121561195057600080fd5b600061195e84828501611803565b91505092915050565b6000806040838503121561197a57600080fd5b600061198885828601611803565b925050602061199985828601611803565b9150509250929050565b60006119af8383611bf0565b905092915050565b60006119c38383611cbc565b60208301905092915050565b6119d881611fff565b82525050565b60006119e982611ef6565b6119f38185611f31565b935083602082028501611a0585611ed6565b8060005b85811015611a415784840389528151611a2285826119a3565b9450611a2d83611f17565b925060208a01995050600181019050611a09565b50829750879550505050505092915050565b6000611a5e82611f01565b611a688185611f42565b9350611a7383611ee6565b8060005b83811015611aa4578151611a8b88826119b7565b9750611a9683611f24565b925050600181019050611a77565b5085935050505092915050565b611aba81612011565b82525050565b611ac981612067565b82525050565b6000611ada82611f0c565b611ae48185611f53565b9350611af481856020860161209a565b611afd81612206565b840191505092915050565b6000611b1382611f0c565b611b1d8185611f64565b9350611b2d81856020860161209a565b611b3681612206565b840191505092915050565b6000611b4e601b83611f64565b9150611b5982612217565b602082019050919050565b6000611b71602083611f64565b9150611b7c82612240565b602082019050919050565b6000611b94602383611f64565b9150611b9f82612269565b604082019050919050565b6000611bb7601783611f64565b9150611bc2826122b8565b602082019050919050565b6000611bda602683611f64565b9150611be5826122e1565b604082019050919050565b600061012083016000830151611c096000860182611cbc565b5060208301518482036020860152611c218282611acf565b91505060408301518482036040860152611c3b8282611acf565b9150506060830151611c5060608601826119cf565b506080830151611c636080860182611cbc565b5060a0830151611c7660a0860182611cbc565b5060c0830151611c8960c0860182611cbc565b5060e0830151611c9c60e0860182611cbc565b50610100830151611cb1610100860182611ab1565b508091505092915050565b611cc58161205d565b82525050565b611cd48161205d565b82525050565b60006020820190508181036000830152611cf481846119de565b905092915050565b60006020820190508181036000830152611d168184611a53565b905092915050565b6000602082019050611d336000830184611ac0565b92915050565b60006020820190508181036000830152611d538184611b08565b905092915050565b60006020820190508181036000830152611d7481611b41565b9050919050565b60006020820190508181036000830152611d9481611b64565b9050919050565b60006020820190508181036000830152611db481611b87565b9050919050565b60006020820190508181036000830152611dd481611bcd565b9050919050565b6000602082019050611df06000830184611ccb565b92915050565b6000604082019050611e0b6000830185611ccb565b8181036020830152611e1d8184611b08565b90509392505050565b6000604082019050611e3b6000830184611ccb565b8181036020830152611e4c81611baa565b905092915050565b6000611e5e611e6f565b9050611e6a82826120ff565b919050565b6000604051905090565b600067ffffffffffffffff821115611e9457611e936121d7565b5b602082029050602081019050919050565b600067ffffffffffffffff821115611ec057611ebf6121d7565b5b611ec982612206565b9050602081019050919050565b6000819050602082019050919050565b6000819050602082019050919050565b600081519050919050565b600081519050919050565b600081519050919050565b6000602082019050919050565b6000602082019050919050565b600082825260208201905092915050565b600082825260208201905092915050565b600082825260208201905092915050565b600082825260208201905092915050565b6000611f808261205d565b9150611f8b8361205d565b9250827fffffffffffffffffffffffffffffffffffffffffffffffffffffffffffffffff03821115611fc057611fbf612179565b5b828201905092915050565b6000611fd68261205d565b9150611fe18361205d565b925082821015611ff457611ff3612179565b5b828203905092915050565b600061200a8261203d565b9050919050565b60007fffffffff0000000000000000000000000000000000000000000000000000000082169050919050565b600073ffffffffffffffffffffffffffffffffffffffff82169050919050565b6000819050919050565b600061207282612079565b9050919050565b60006120848261203d565b9050919050565b82818337600083830152505050565b60005b838110156120b857808201518184015260208101905061209d565b838111156120c7576000848401525b50505050565b600060028204905060018216806120e557607f821691505b602082108114156120f9576120f86121a8565b5b50919050565b61210882612206565b810181811067ffffffffffffffff82111715612127576121266121d7565b5b80604052505050565b600061213b8261205d565b91507fffffffffffffffffffffffffffffffffffffffffffffffffffffffffffffffff82141561216e5761216d612179565b5b600182019050919050565b7f4e487b7100000000000000000000000000000000000000000000000000000000600052601160045260246000fd5b7f4e487b7100000000000000000000000000000000000000000000000000000000600052602260045260246000fd5b7f4e487b7100000000000000000000000000000000000000000000000000000000600052604160045260246000fd5b6000601f19601f8301169050919050565b7f4e6f7420456e6f7567682046756e6420746f2077697468647261770000000000600082015250565b7f416c7265616479205769746864726177656420666f7220746869732066756e64600082015250565b7f43726564656e7461696c73206e6f74206f776e6564206279206d73672e73656e60008201527f6465720000000000000000000000000000000000000000000000000000000000602082015250565b7f466f756e64696e67205465616d20436f6c6c6563746564000000000000000000600082015250565b7f526571756972656564206d696e696d6d756d20302e30312045746820746f204460008201527f65706f7369740000000000000000000000000000000000000000000000000000602082015250565b61233981611fff565b811461234457600080fd5b50565b61235081612011565b811461235b57600080fd5b50565b6123678161205d565b811461237257600080fd5b5056fea2646970667358221220f3c970f05b618447c38b8ee2e05c85d2977dd45e9be8bd2851236e79a90a366f64736f6c63430008040033",
  "linkReferences": {},
  "deployedLinkReferences": {}
}