{
  "_format": "hh-sol-artifact-1",
  "contractName": "FundContractV1",
  "sourceName": "contracts/FundContractV1.sol",
  "abi": [
    {
      "inputs": [
        {
          "internalType": "contract NftFactoryV1",
          "name": "NftFactoryV1_",
          "type": "address"
        }
      ],
      "stateMutability": "payable",
      "type": "constructor"
    },
    {
      "anonymous": false,
      "inputs": [
        {
          "indexed": true,
          "internalType": "address",
          "name": "previousOwner",
          "type": "address"
        },
        {
          "indexed": true,
          "internalType": "address",
          "name": "newOwner",
          "type": "address"
        }
      ],
      "name": "OwnershipTransferred",
      "type": "event"
    },
    {
      "anonymous": false,
      "inputs": [
        {
          "indexed": true,
          "internalType": "address",
          "name": "sender",
          "type": "address"
        },
        {
          "indexed": false,
          "internalType": "uint256",
          "name": "amount",
          "type": "uint256"
        },
        {
          "indexed": false,
          "internalType": "string",
          "name": "message",
          "type": "string"
        }
      ],
      "name": "deposit",
      "type": "event"
    },
    {
      "anonymous": false,
      "inputs": [
        {
          "indexed": true,
          "internalType": "address",
          "name": "to",
          "type": "address"
        },
        {
          "indexed": false,
          "internalType": "uint256",
          "name": "amount",
          "type": "uint256"
        },
        {
          "indexed": false,
          "internalType": "string",
          "name": "message",
          "type": "string"
        }
      ],
      "name": "transfer",
      "type": "event"
    },
    {
      "inputs": [],
      "name": "Name",
      "outputs": [
        {
          "internalType": "string",
          "name": "",
          "type": "string"
        }
      ],
      "stateMutability": "view",
      "type": "function"
    },
    {
      "inputs": [
        {
          "internalType": "string",
          "name": "name_",
          "type": "string"
        },
        {
          "internalType": "string",
          "name": "description_",
          "type": "string"
        },
        {
          "internalType": "uint256",
          "name": "distributionAmountPerTram_",
          "type": "uint256"
        },
        {
          "internalType": "bytes4",
          "name": "credentailsUsed_",
          "type": "bytes4"
        }
      ],
      "name": "createFund",
      "outputs": [
        {
          "internalType": "uint256",
          "name": "",
          "type": "uint256"
        }
      ],
      "stateMutability": "nonpayable",
      "type": "function"
    },
    {
      "inputs": [
        {
          "internalType": "uint256",
          "name": "fundType_",
          "type": "uint256"
        }
      ],
      "name": "depositFund",
      "outputs": [],
      "stateMutability": "payable",
      "type": "function"
    },
    {
      "inputs": [
        {
          "internalType": "uint256[]",
          "name": "credentials_",
          "type": "uint256[]"
        }
      ],
      "name": "evaluavateNFTCredentials",
      "outputs": [
        {
          "internalType": "uint256[]",
          "name": "fundtypes_",
          "type": "uint256[]"
        }
      ],
      "stateMutability": "view",
      "type": "function"
    },
    {
      "inputs": [],
      "name": "getFundetails",
      "outputs": [
        {
          "components": [
            {
              "internalType": "uint256",
              "name": "fundType",
              "type": "uint256"
            },
            {
              "internalType": "string",
              "name": "name",
              "type": "string"
            },
            {
              "internalType": "string",
              "name": "description",
              "type": "string"
            },
            {
              "internalType": "address",
              "name": "createdBy",
              "type": "address"
            },
            {
              "internalType": "uint256",
              "name": "createdDate",
              "type": "uint256"
            },
            {
              "internalType": "uint256",
              "name": "totalAmountDeposited",
              "type": "uint256"
            },
            {
              "internalType": "uint256",
              "name": "totalAmountDisbursed",
              "type": "uint256"
            },
            {
              "internalType": "uint256",
              "name": "maxDistributableAmountPerTeam",
              "type": "uint256"
            },
            {
              "internalType": "bytes4",
              "name": "credentailsUsed",
              "type": "bytes4"
            }
          ],
          "internalType": "struct FundContractV1.FundDetails[]",
          "name": "",
          "type": "tuple[]"
        }
      ],
      "stateMutability": "view",
      "type": "function"
    },
    {
      "inputs": [
        {
          "internalType": "uint256",
          "name": "credential_",
          "type": "uint256"
        },
        {
          "internalType": "uint256",
          "name": "fundType",
          "type": "uint256"
        }
      ],
      "name": "getFunding",
      "outputs": [],
      "stateMutability": "nonpayable",
      "type": "function"
    },
    {
      "inputs": [],
      "name": "minimumEthToDepoit",
      "outputs": [
        {
          "internalType": "uint256",
          "name": "",
          "type": "uint256"
        }
      ],
      "stateMutability": "view",
      "type": "function"
    },
    {
      "inputs": [],
      "name": "nftFactoryV1",
      "outputs": [
        {
          "internalType": "contract NftFactoryV1",
          "name": "",
          "type": "address"
        }
      ],
      "stateMutability": "view",
      "type": "function"
    },
    {
      "inputs": [],
      "name": "owner",
      "outputs": [
        {
          "internalType": "address",
          "name": "",
          "type": "address"
        }
      ],
      "stateMutability": "view",
      "type": "function"
    },
    {
      "inputs": [],
      "name": "renounceOwnership",
      "outputs": [],
      "stateMutability": "nonpayable",
      "type": "function"
    },
    {
      "inputs": [
        {
          "internalType": "address",
          "name": "newOwner",
          "type": "address"
        }
      ],
      "name": "transferOwnership",
      "outputs": [],
      "stateMutability": "nonpayable",
      "type": "function"
    }
  ],
  "bytecode": "0x60806040526040518060400160405280600e81526020017f46756e64436f6e747261637456310000000000000000000000000000000000008152506001908051906020019062000051929190620001b6565b50662386f26fc1000060045560405162002b9238038062002b9283398181016040528101906200008291906200027d565b620000a262000096620000ea60201b60201c565b620000f260201b60201c565b80600260006101000a81548173ffffffffffffffffffffffffffffffffffffffff021916908373ffffffffffffffffffffffffffffffffffffffff1602179055505062000370565b600033905090565b60008060009054906101000a900473ffffffffffffffffffffffffffffffffffffffff169050816000806101000a81548173ffffffffffffffffffffffffffffffffffffffff021916908373ffffffffffffffffffffffffffffffffffffffff1602179055508173ffffffffffffffffffffffffffffffffffffffff168173ffffffffffffffffffffffffffffffffffffffff167f8be0079c531659141344cd1fd0a4f28419497f9722a3daafe3b4186f6b6457e060405160405180910390a35050565b828054620001c490620002f1565b90600052602060002090601f016020900481019282620001e8576000855562000234565b82601f106200020357805160ff191683800117855562000234565b8280016001018555821562000234579182015b828111156200023357825182559160200191906001019062000216565b5b50905062000243919062000247565b5090565b5b808211156200026257600081600090555060010162000248565b5090565b600081519050620002778162000356565b92915050565b6000602082840312156200029057600080fd5b6000620002a08482850162000266565b91505092915050565b6000620002b682620002d1565b9050919050565b6000620002ca82620002a9565b9050919050565b600073ffffffffffffffffffffffffffffffffffffffff82169050919050565b600060028204905060018216806200030a57607f821691505b6020821081141562000321576200032062000327565b5b50919050565b7f4e487b7100000000000000000000000000000000000000000000000000000000600052602260045260246000fd5b6200036181620002bd565b81146200036d57600080fd5b50565b61281280620003806000396000f3fe60806040526004361061009c5760003560e01c8063715018a611610064578063715018a61461018d5780638052474d146101a45780638ba6b26c146101cf5780638da5cb5b146101fa578063c962716f14610225578063f2fde38b1461024e5761009c565b806309b6a417146100a157806336c54dc2146100de578063585e5d20146101095780636143273f1461012557806361d1edde14610150575b600080fd5b3480156100ad57600080fd5b506100c860048036038101906100c39190611bea565b610277565b6040516100d591906121ca565b60405180910390f35b3480156100ea57600080fd5b506100f3610425565b60405161010091906120cd565b60405180910390f35b610123600480360381019061011e9190611c7d565b61044b565b005b34801561013157600080fd5b5061013a61072c565b60405161014791906121ca565b60405180910390f35b34801561015c57600080fd5b5061017760048036038101906101729190611b80565b610732565b60405161018491906120ab565b60405180910390f35b34801561019957600080fd5b506101a2610b9c565b005b3480156101b057600080fd5b506101b9610c24565b6040516101c691906120e8565b60405180910390f35b3480156101db57600080fd5b506101e4610cb2565b6040516101f19190612089565b60405180910390f35b34801561020657600080fd5b5061020f610f13565b60405161021c919061206e565b60405180910390f35b34801561023157600080fd5b5061024c60048036038101906102479190611ca6565b610f3c565b005b34801561025a57600080fd5b5061027560048036038101906102709190611b2e565b61173c565b005b60006102836003611834565b600061028f600361184a565b9050600033905060006040518061012001604052808481526020018981526020018881526020018373ffffffffffffffffffffffffffffffffffffffff1681526020014281526020016000815260200160008152602001878152602001867bffffffffffffffffffffffffffffffffffffffffffffffffffffffff191681525090506005819080600181540180825580915050600190039060005260206000209060090201600090919091909150600082015181600001556020820151816001019080519060200190610363929190611924565b506040820151816002019080519060200190610380929190611924565b5060608201518160030160006101000a81548173ffffffffffffffffffffffffffffffffffffffff021916908373ffffffffffffffffffffffffffffffffffffffff1602179055506080820151816004015560a0820151816005015560c0820151816006015560e082015181600701556101008201518160080160006101000a81548163ffffffff021916908360e01c02179055505050829350505050949350505050565b600260009054906101000a900473ffffffffffffffffffffffffffffffffffffffff1681565b600454341161048f576040517f08c379a0000000000000000000000000000000000000000000000000000000008152600401610486906121aa565b60405180910390fd5b6000805b6005805490508110156106615782600582815481106104db577f4e487b7100000000000000000000000000000000000000000000000000000000600052603260045260246000fd5b906000526020600020906009020160000154141561064e57346005828154811061052e577f4e487b7100000000000000000000000000000000000000000000000000000000600052603260045260246000fd5b90600052602060002090600902016005015461054a9190612364565b60058281548110610584577f4e487b7100000000000000000000000000000000000000000000000000000000600052603260045260246000fd5b906000526020600020906009020160050181905550346007600085815260200190815260200160002060003373ffffffffffffffffffffffffffffffffffffffff1673ffffffffffffffffffffffffffffffffffffffff168152602001908152602001600020546105f59190612364565b6007600085815260200190815260200160002060003373ffffffffffffffffffffffffffffffffffffffff1673ffffffffffffffffffffffffffffffffffffffff16815260200190815260200160002081905550600191505b80806106599061251f565b915050610493565b503373ffffffffffffffffffffffffffffffffffffffff167fbfe07da681ac99ed76dd1a5660057097cab44710a3778466c670e90e2cfd4f6934836106db576040518060400160405280601081526020017f46756e64547970654e6f74466f756e6400000000000000000000000000000000815250610712565b6040518060400160405280600d81526020017f455448206465706f7369746564000000000000000000000000000000000000008152505b6040516107209291906121e5565b60405180910390a25050565b60045481565b606060008251905060005b818110156108b6576000600260009054906101000a900473ffffffffffffffffffffffffffffffffffffffff1673ffffffffffffffffffffffffffffffffffffffff16636352211e8684815181106107be577f4e487b7100000000000000000000000000000000000000000000000000000000600052603260045260246000fd5b60200260200101516040518263ffffffff1660e01b81526004016107e291906121ca565b60206040518083038186803b1580156107fa57600080fd5b505afa15801561080e573d6000803e3d6000fd5b505050506040513d601f19601f820116820180604052508101906108329190611b57565b90503373ffffffffffffffffffffffffffffffffffffffff168173ffffffffffffffffffffffffffffffffffffffff16146108a2576040517f08c379a00000000000000000000000000000000000000000000000000000000081526004016108999061216a565b60405180910390fd5b5080806108ae9061251f565b91505061073d565b50600060058054905067ffffffffffffffff8111156108fe577f4e487b7100000000000000000000000000000000000000000000000000000000600052604160045260246000fd5b60405190808252806020026020018201604052801561092c5781602001602082028036833780820191505090505b50905060005b82811015610b91576000600260009054906101000a900473ffffffffffffffffffffffffffffffffffffffff1673ffffffffffffffffffffffffffffffffffffffff16634cb9705c8784815181106109b3577f4e487b7100000000000000000000000000000000000000000000000000000000600052603260045260246000fd5b60200260200101516040518263ffffffff1660e01b81526004016109d791906121ca565b60206040518083038186803b1580156109ef57600080fd5b505afa158015610a03573d6000803e3d6000fd5b505050506040513d601f19601f82011682018060405250810190610a279190611bc1565b905060005b600580549050811015610b7c5760058181548110610a73577f4e487b7100000000000000000000000000000000000000000000000000000000600052603260045260246000fd5b906000526020600020906009020160080160009054906101000a900460e01b7bffffffffffffffffffffffffffffffffffffffffffffffffffffffff1916827bffffffffffffffffffffffffffffffffffffffffffffffffffffffff19161415610b695760058181548110610b11577f4e487b7100000000000000000000000000000000000000000000000000000000600052603260045260246000fd5b906000526020600020906009020160000154848481518110610b5c577f4e487b7100000000000000000000000000000000000000000000000000000000600052603260045260246000fd5b6020026020010181815250505b8080610b749061251f565b915050610a2c565b50508080610b899061251f565b915050610932565b508092505050919050565b610ba4611858565b73ffffffffffffffffffffffffffffffffffffffff16610bc2610f13565b73ffffffffffffffffffffffffffffffffffffffff1614610c18576040517f08c379a0000000000000000000000000000000000000000000000000000000008152600401610c0f9061218a565b60405180910390fd5b610c226000611860565b565b60018054610c31906124bc565b80601f0160208091040260200160405190810160405280929190818152602001828054610c5d906124bc565b8015610caa5780601f10610c7f57610100808354040283529160200191610caa565b820191906000526020600020905b815481529060010190602001808311610c8d57829003601f168201915b505050505081565b60606005805480602002602001604051908101604052809291908181526020016000905b82821015610f0a57838290600052602060002090600902016040518061012001604052908160008201548152602001600182018054610d14906124bc565b80601f0160208091040260200160405190810160405280929190818152602001828054610d40906124bc565b8015610d8d5780601f10610d6257610100808354040283529160200191610d8d565b820191906000526020600020905b815481529060010190602001808311610d7057829003601f168201915b50505050508152602001600282018054610da6906124bc565b80601f0160208091040260200160405190810160405280929190818152602001828054610dd2906124bc565b8015610e1f5780601f10610df457610100808354040283529160200191610e1f565b820191906000526020600020905b815481529060010190602001808311610e0257829003601f168201915b505050505081526020016003820160009054906101000a900473ffffffffffffffffffffffffffffffffffffffff1673ffffffffffffffffffffffffffffffffffffffff1673ffffffffffffffffffffffffffffffffffffffff168152602001600482015481526020016005820154815260200160068201548152602001600782015481526020016008820160009054906101000a900460e01b7bffffffffffffffffffffffffffffffffffffffffffffffffffffffff19167bffffffffffffffffffffffffffffffffffffffffffffffffffffffff19168152505081526020019060010190610cd6565b50505050905090565b60008060009054906101000a900473ffffffffffffffffffffffffffffffffffffffff16905090565b6000600260009054906101000a900473ffffffffffffffffffffffffffffffffffffffff1673ffffffffffffffffffffffffffffffffffffffff16636352211e846040518263ffffffff1660e01b8152600401610f9991906121ca565b60206040518083038186803b158015610fb157600080fd5b505afa158015610fc5573d6000803e3d6000fd5b505050506040513d601f19601f82011682018060405250810190610fe99190611b57565b90503373ffffffffffffffffffffffffffffffffffffffff168173ffffffffffffffffffffffffffffffffffffffff1614611059576040517f08c379a00000000000000000000000000000000000000000000000000000000081526004016110509061216a565b60405180910390fd5b6000600260009054906101000a900473ffffffffffffffffffffffffffffffffffffffff1673ffffffffffffffffffffffffffffffffffffffff16634cb9705c856040518263ffffffff1660e01b81526004016110b691906121ca565b60206040518083038186803b1580156110ce57600080fd5b505afa1580156110e2573d6000803e3d6000fd5b505050506040513d601f19601f820116820180604052508101906111069190611bc1565b905060005b6005805490508110156117355760058181548110611152577f4e487b7100000000000000000000000000000000000000000000000000000000600052603260045260246000fd5b90600052602060002090600902016000015484141561172257600581815481106111a5577f4e487b7100000000000000000000000000000000000000000000000000000000600052603260045260246000fd5b906000526020600020906009020160080160009054906101000a900460e01b7bffffffffffffffffffffffffffffffffffffffffffffffffffffffff1916827bffffffffffffffffffffffffffffffffffffffffffffffffffffffff191614156117215760006006600060058481548110611249577f4e487b7100000000000000000000000000000000000000000000000000000000600052603260045260246000fd5b906000526020600020906009020160000154815260200190815260200160002060003373ffffffffffffffffffffffffffffffffffffffff1673ffffffffffffffffffffffffffffffffffffffff16815260200190815260200160002054146112e7576040517f08c379a00000000000000000000000000000000000000000000000000000000081526004016112de9061214a565b60405180910390fd5b60058181548110611321577f4e487b7100000000000000000000000000000000000000000000000000000000600052603260045260246000fd5b9060005260206000209060090201600701546005828154811061136d577f4e487b7100000000000000000000000000000000000000000000000000000000600052603260045260246000fd5b906000526020600020906009020160060154600583815481106113b9577f4e487b7100000000000000000000000000000000000000000000000000000000600052603260045260246000fd5b9060005260206000209060090201600501546113d591906123ba565b11611415576040517f08c379a000000000000000000000000000000000000000000000000000000000815260040161140c9061210a565b60405180910390fd5b3373ffffffffffffffffffffffffffffffffffffffff166108fc60058381548110611469577f4e487b7100000000000000000000000000000000000000000000000000000000600052603260045260246000fd5b9060005260206000209060090201600701549081150290604051600060405180830381858888f193505050501580156114a6573d6000803e3d6000fd5b50600581815481106114e1577f4e487b7100000000000000000000000000000000000000000000000000000000600052603260045260246000fd5b9060005260206000209060090201600701546005828154811061152d577f4e487b7100000000000000000000000000000000000000000000000000000000600052603260045260246000fd5b9060005260206000209060090201600601546115499190612364565b60058281548110611583577f4e487b7100000000000000000000000000000000000000000000000000000000600052603260045260246000fd5b906000526020600020906009020160060181905550600581815481106115d2577f4e487b7100000000000000000000000000000000000000000000000000000000600052603260045260246000fd5b9060005260206000209060090201600701546006600060058481548110611622577f4e487b7100000000000000000000000000000000000000000000000000000000600052603260045260246000fd5b906000526020600020906009020160000154815260200190815260200160002060003373ffffffffffffffffffffffffffffffffffffffff1673ffffffffffffffffffffffffffffffffffffffff168152602001908152602001600020819055503373ffffffffffffffffffffffffffffffffffffffff167f56b8c7241bbf92c9d8c0ee316eb6ab249fec0ac956bef8541ec03650498526b2600583815481106116f5577f4e487b7100000000000000000000000000000000000000000000000000000000600052603260045260246000fd5b9060005260206000209060090201600701546040516117149190612215565b60405180910390a2611735565b5b808061172d9061251f565b91505061110b565b5050505050565b611744611858565b73ffffffffffffffffffffffffffffffffffffffff16611762610f13565b73ffffffffffffffffffffffffffffffffffffffff16146117b8576040517f08c379a00000000000000000000000000000000000000000000000000000000081526004016117af9061218a565b60405180910390fd5b600073ffffffffffffffffffffffffffffffffffffffff168173ffffffffffffffffffffffffffffffffffffffff161415611828576040517f08c379a000000000000000000000000000000000000000000000000000000000815260040161181f9061212a565b60405180910390fd5b61183181611860565b50565b6001816000016000828254019250508190555050565b600081600001549050919050565b600033905090565b60008060009054906101000a900473ffffffffffffffffffffffffffffffffffffffff169050816000806101000a81548173ffffffffffffffffffffffffffffffffffffffff021916908373ffffffffffffffffffffffffffffffffffffffff1602179055508173ffffffffffffffffffffffffffffffffffffffff168173ffffffffffffffffffffffffffffffffffffffff167f8be0079c531659141344cd1fd0a4f28419497f9722a3daafe3b4186f6b6457e060405160405180910390a35050565b828054611930906124bc565b90600052602060002090601f0160209004810192826119525760008555611999565b82601f1061196b57805160ff1916838001178555611999565b82800160010185558215611999579182015b8281111561199857825182559160200191906001019061197d565b5b5090506119a691906119aa565b5090565b5b808211156119c35760008160009055506001016119ab565b5090565b60006119da6119d584612268565b612243565b905080838252602082019050828560208602820111156119f957600080fd5b60005b85811015611a295781611a0f8882611b19565b8452602084019350602083019250506001810190506119fc565b5050509392505050565b6000611a46611a4184612294565b612243565b905082815260208101848484011115611a5e57600080fd5b611a6984828561247a565b509392505050565b600081359050611a8081612797565b92915050565b600081519050611a9581612797565b92915050565b600082601f830112611aac57600080fd5b8135611abc8482602086016119c7565b91505092915050565b600081359050611ad4816127ae565b92915050565b600081519050611ae9816127ae565b92915050565b600082601f830112611b0057600080fd5b8135611b10848260208601611a33565b91505092915050565b600081359050611b28816127c5565b92915050565b600060208284031215611b4057600080fd5b6000611b4e84828501611a71565b91505092915050565b600060208284031215611b6957600080fd5b6000611b7784828501611a86565b91505092915050565b600060208284031215611b9257600080fd5b600082013567ffffffffffffffff811115611bac57600080fd5b611bb884828501611a9b565b91505092915050565b600060208284031215611bd357600080fd5b6000611be184828501611ada565b91505092915050565b60008060008060808587031215611c0057600080fd5b600085013567ffffffffffffffff811115611c1a57600080fd5b611c2687828801611aef565b945050602085013567ffffffffffffffff811115611c4357600080fd5b611c4f87828801611aef565b9350506040611c6087828801611b19565b9250506060611c7187828801611ac5565b91505092959194509250565b600060208284031215611c8f57600080fd5b6000611c9d84828501611b19565b91505092915050565b60008060408385031215611cb957600080fd5b6000611cc785828601611b19565b9250506020611cd885828601611b19565b9150509250929050565b6000611cee8383611f84565b905092915050565b6000611d028383612050565b60208301905092915050565b611d17816123ee565b82525050565b611d26816123ee565b82525050565b6000611d37826122e5565b611d418185612320565b935083602082028501611d53856122c5565b8060005b85811015611d8f5784840389528151611d708582611ce2565b9450611d7b83612306565b925060208a01995050600181019050611d57565b50829750879550505050505092915050565b6000611dac826122f0565b611db68185612331565b9350611dc1836122d5565b8060005b83811015611df2578151611dd98882611cf6565b9750611de483612313565b925050600181019050611dc5565b5085935050505092915050565b611e0881612400565b82525050565b611e1781612456565b82525050565b6000611e28826122fb565b611e328185612342565b9350611e42818560208601612489565b611e4b816125f5565b840191505092915050565b6000611e61826122fb565b611e6b8185612353565b9350611e7b818560208601612489565b611e84816125f5565b840191505092915050565b6000611e9c601b83612353565b9150611ea782612606565b602082019050919050565b6000611ebf602683612353565b9150611eca8261262f565b604082019050919050565b6000611ee2602083612353565b9150611eed8261267e565b602082019050919050565b6000611f05602383612353565b9150611f10826126a7565b604082019050919050565b6000611f28601783612353565b9150611f33826126f6565b602082019050919050565b6000611f4b602083612353565b9150611f568261271f565b602082019050919050565b6000611f6e602683612353565b9150611f7982612748565b604082019050919050565b600061012083016000830151611f9d6000860182612050565b5060208301518482036020860152611fb58282611e1d565b91505060408301518482036040860152611fcf8282611e1d565b9150506060830151611fe46060860182611d0e565b506080830151611ff76080860182612050565b5060a083015161200a60a0860182612050565b5060c083015161201d60c0860182612050565b5060e083015161203060e0860182612050565b50610100830151612045610100860182611dff565b508091505092915050565b6120598161244c565b82525050565b6120688161244c565b82525050565b60006020820190506120836000830184611d1d565b92915050565b600060208201905081810360008301526120a38184611d2c565b905092915050565b600060208201905081810360008301526120c58184611da1565b905092915050565b60006020820190506120e26000830184611e0e565b92915050565b600060208201905081810360008301526121028184611e56565b905092915050565b6000602082019050818103600083015261212381611e8f565b9050919050565b6000602082019050818103600083015261214381611eb2565b9050919050565b6000602082019050818103600083015261216381611ed5565b9050919050565b6000602082019050818103600083015261218381611ef8565b9050919050565b600060208201905081810360008301526121a381611f3e565b9050919050565b600060208201905081810360008301526121c381611f61565b9050919050565b60006020820190506121df600083018461205f565b92915050565b60006040820190506121fa600083018561205f565b818103602083015261220c8184611e56565b90509392505050565b600060408201905061222a600083018461205f565b818103602083015261223b81611f1b565b905092915050565b600061224d61225e565b905061225982826124ee565b919050565b6000604051905090565b600067ffffffffffffffff821115612283576122826125c6565b5b602082029050602081019050919050565b600067ffffffffffffffff8211156122af576122ae6125c6565b5b6122b8826125f5565b9050602081019050919050565b6000819050602082019050919050565b6000819050602082019050919050565b600081519050919050565b600081519050919050565b600081519050919050565b6000602082019050919050565b6000602082019050919050565b600082825260208201905092915050565b600082825260208201905092915050565b600082825260208201905092915050565b600082825260208201905092915050565b600061236f8261244c565b915061237a8361244c565b9250827fffffffffffffffffffffffffffffffffffffffffffffffffffffffffffffffff038211156123af576123ae612568565b5b828201905092915050565b60006123c58261244c565b91506123d08361244c565b9250828210156123e3576123e2612568565b5b828203905092915050565b60006123f98261242c565b9050919050565b60007fffffffff0000000000000000000000000000000000000000000000000000000082169050919050565b600073ffffffffffffffffffffffffffffffffffffffff82169050919050565b6000819050919050565b600061246182612468565b9050919050565b60006124738261242c565b9050919050565b82818337600083830152505050565b60005b838110156124a757808201518184015260208101905061248c565b838111156124b6576000848401525b50505050565b600060028204905060018216806124d457607f821691505b602082108114156124e8576124e7612597565b5b50919050565b6124f7826125f5565b810181811067ffffffffffffffff82111715612516576125156125c6565b5b80604052505050565b600061252a8261244c565b91507fffffffffffffffffffffffffffffffffffffffffffffffffffffffffffffffff82141561255d5761255c612568565b5b600182019050919050565b7f4e487b7100000000000000000000000000000000000000000000000000000000600052601160045260246000fd5b7f4e487b7100000000000000000000000000000000000000000000000000000000600052602260045260246000fd5b7f4e487b7100000000000000000000000000000000000000000000000000000000600052604160045260246000fd5b6000601f19601f8301169050919050565b7f4e6f7420456e6f7567682046756e6420746f2077697468647261770000000000600082015250565b7f4f776e61626c653a206e6577206f776e657220697320746865207a65726f206160008201527f6464726573730000000000000000000000000000000000000000000000000000602082015250565b7f416c7265616479205769746864726177656420666f7220746869732066756e64600082015250565b7f43726564656e7461696c73206e6f74206f776e6564206279206d73672e73656e60008201527f6465720000000000000000000000000000000000000000000000000000000000602082015250565b7f466f756e64696e67205465616d20436f6c6c6563746564000000000000000000600082015250565b7f4f776e61626c653a2063616c6c6572206973206e6f7420746865206f776e6572600082015250565b7f526571756972656564206d696e696d6d756d20302e30312045746820746f204460008201527f65706f7369740000000000000000000000000000000000000000000000000000602082015250565b6127a0816123ee565b81146127ab57600080fd5b50565b6127b781612400565b81146127c257600080fd5b50565b6127ce8161244c565b81146127d957600080fd5b5056fea2646970667358221220390944dcb50e3e341133d2f31a03875d6ae2766e004e4ea8e9439614168fb7c164736f6c63430008040033",
  "linkReferences": {},
  "deployedLinkReferences": {}
}