{
  "_format": "hh-sol-artifact-1",
  "contractName": "FundContractV1",
  "sourceName": "contracts/FundContractV1.sol",
  "abi": [
    {
      "inputs": [
        {
          "internalType": "contract NftFactoryV1",
          "name": "NftFactoryV1_",
          "type": "address"
        }
      ],
      "stateMutability": "payable",
      "type": "constructor"
    },
    {
      "anonymous": false,
      "inputs": [
        {
          "indexed": true,
          "internalType": "address",
          "name": "sender",
          "type": "address"
        },
        {
          "indexed": false,
          "internalType": "uint256",
          "name": "amount",
          "type": "uint256"
        },
        {
          "indexed": false,
          "internalType": "string",
          "name": "message",
          "type": "string"
        }
      ],
      "name": "deposit",
      "type": "event"
    },
    {
      "anonymous": false,
      "inputs": [
        {
          "indexed": true,
          "internalType": "address",
          "name": "to",
          "type": "address"
        },
        {
          "indexed": false,
          "internalType": "uint256",
          "name": "amount",
          "type": "uint256"
        },
        {
          "indexed": false,
          "internalType": "string",
          "name": "message",
          "type": "string"
        }
      ],
      "name": "transfer",
      "type": "event"
    },
    {
      "inputs": [],
      "name": "Name",
      "outputs": [
        {
          "internalType": "string",
          "name": "",
          "type": "string"
        }
      ],
      "stateMutability": "view",
      "type": "function"
    },
    {
      "inputs": [
        {
          "internalType": "string",
          "name": "name_",
          "type": "string"
        },
        {
          "internalType": "string",
          "name": "description_",
          "type": "string"
        },
        {
          "internalType": "uint256",
          "name": "distributionAmountPerTram_",
          "type": "uint256"
        },
        {
          "internalType": "bytes4",
          "name": "credentailsUsed_",
          "type": "bytes4"
        }
      ],
      "name": "createFund",
      "outputs": [
        {
          "internalType": "uint256",
          "name": "",
          "type": "uint256"
        }
      ],
      "stateMutability": "nonpayable",
      "type": "function"
    },
    {
      "inputs": [
        {
          "internalType": "uint256",
          "name": "fundType_",
          "type": "uint256"
        }
      ],
      "name": "depositFund",
      "outputs": [],
      "stateMutability": "payable",
      "type": "function"
    },
    {
      "inputs": [
        {
          "internalType": "uint256[]",
          "name": "credentials_",
          "type": "uint256[]"
        }
      ],
      "name": "evaluavateNFTCredentials",
      "outputs": [
        {
          "internalType": "uint256[]",
          "name": "fundtypes_",
          "type": "uint256[]"
        }
      ],
      "stateMutability": "view",
      "type": "function"
    },
    {
      "inputs": [],
      "name": "getFundetails",
      "outputs": [
        {
          "components": [
            {
              "internalType": "uint256",
              "name": "fundType",
              "type": "uint256"
            },
            {
              "internalType": "string",
              "name": "name",
              "type": "string"
            },
            {
              "internalType": "string",
              "name": "description",
              "type": "string"
            },
            {
              "internalType": "address",
              "name": "createdBy",
              "type": "address"
            },
            {
              "internalType": "uint256",
              "name": "createdDate",
              "type": "uint256"
            },
            {
              "internalType": "uint256",
              "name": "totalAmountDeposited",
              "type": "uint256"
            },
            {
              "internalType": "uint256",
              "name": "totalAmountDisbursed",
              "type": "uint256"
            },
            {
              "internalType": "uint256",
              "name": "maxDistributableAmountPerTeam",
              "type": "uint256"
            },
            {
              "internalType": "bytes4",
              "name": "credentailsUsed",
              "type": "bytes4"
            }
          ],
          "internalType": "struct FundContractV1.FundDetails[]",
          "name": "",
          "type": "tuple[]"
        }
      ],
      "stateMutability": "view",
      "type": "function"
    },
    {
      "inputs": [
        {
          "internalType": "uint256",
          "name": "credential_",
          "type": "uint256"
        },
        {
          "internalType": "uint256",
          "name": "fundType_",
          "type": "uint256"
        }
      ],
      "name": "getFunding",
      "outputs": [],
      "stateMutability": "nonpayable",
      "type": "function"
    },
    {
      "inputs": [],
      "name": "minimumEthToDepoit",
      "outputs": [
        {
          "internalType": "uint256",
          "name": "",
          "type": "uint256"
        }
      ],
      "stateMutability": "view",
      "type": "function"
    },
    {
      "inputs": [],
      "name": "nftFactoryV1",
      "outputs": [
        {
          "internalType": "contract NftFactoryV1",
          "name": "",
          "type": "address"
        }
      ],
      "stateMutability": "view",
      "type": "function"
    }
  ],
  "bytecode": "0x60806040526040518060400160405280600e81526020017f46756e64436f6e747261637456310000000000000000000000000000000000008152506001908051906020019062000051929190620000d2565b50662386f26fc100006004556040516200270938038062002709833981810160405281019062000082919062000199565b600160008190555080600260006101000a81548173ffffffffffffffffffffffffffffffffffffffff021916908373ffffffffffffffffffffffffffffffffffffffff160217905550506200028c565b828054620000e0906200020d565b90600052602060002090601f01602090048101928262000104576000855562000150565b82601f106200011f57805160ff191683800117855562000150565b8280016001018555821562000150579182015b828111156200014f57825182559160200191906001019062000132565b5b5090506200015f919062000163565b5090565b5b808211156200017e57600081600090555060010162000164565b5090565b600081519050620001938162000272565b92915050565b600060208284031215620001ac57600080fd5b6000620001bc8482850162000182565b91505092915050565b6000620001d282620001ed565b9050919050565b6000620001e682620001c5565b9050919050565b600073ffffffffffffffffffffffffffffffffffffffff82169050919050565b600060028204905060018216806200022657607f821691505b602082108114156200023d576200023c62000243565b5b50919050565b7f4e487b7100000000000000000000000000000000000000000000000000000000600052602260045260246000fd5b6200027d81620001d9565b81146200028957600080fd5b50565b61246d806200029c6000396000f3fe60806040526004361061007b5760003560e01c806361d1edde1161004e57806361d1edde1461012f5780638052474d1461016c5780638ba6b26c14610197578063c962716f146101c25761007b565b806309b6a4171461008057806336c54dc2146100bd578063585e5d20146100e85780636143273f14610104575b600080fd5b34801561008c57600080fd5b506100a760048036038101906100a29190611901565b6101eb565b6040516100b49190611e74565b60405180910390f35b3480156100c957600080fd5b506100d2610399565b6040516100df9190611d97565b60405180910390f35b61010260048036038101906100fd9190611994565b6103bf565b005b34801561011057600080fd5b506101196106a0565b6040516101269190611e74565b60405180910390f35b34801561013b57600080fd5b5061015660048036038101906101519190611897565b6106a6565b6040516101639190611d75565b60405180910390f35b34801561017857600080fd5b50610181610b10565b60405161018e9190611db2565b60405180910390f35b3480156101a357600080fd5b506101ac610b9e565b6040516101b99190611d53565b60405180910390f35b3480156101ce57600080fd5b506101e960048036038101906101e491906119bd565b610dff565b005b60006101f76003611655565b6000610203600361166b565b9050600033905060006040518061012001604052808481526020018981526020018881526020018373ffffffffffffffffffffffffffffffffffffffff1681526020014281526020016000815260200160008152602001878152602001867bffffffffffffffffffffffffffffffffffffffffffffffffffffffff1916815250905060058190806001815401808255809150506001900390600052602060002090600902016000909190919091506000820151816000015560208201518160010190805190602001906102d7929190611679565b5060408201518160020190805190602001906102f4929190611679565b5060608201518160030160006101000a81548173ffffffffffffffffffffffffffffffffffffffff021916908373ffffffffffffffffffffffffffffffffffffffff1602179055506080820151816004015560a0820151816005015560c0820151816006015560e082015181600701556101008201518160080160006101000a81548163ffffffff021916908360e01c02179055505050829350505050949350505050565b600260009054906101000a900473ffffffffffffffffffffffffffffffffffffffff1681565b6004543411610403576040517f08c379a00000000000000000000000000000000000000000000000000000000081526004016103fa90611e34565b60405180910390fd5b6000805b6005805490508110156105d557826005828154811061044f577f4e487b7100000000000000000000000000000000000000000000000000000000600052603260045260246000fd5b90600052602060002090600902016000015414156105c25734600582815481106104a2577f4e487b7100000000000000000000000000000000000000000000000000000000600052603260045260246000fd5b9060005260206000209060090201600501546104be919061200e565b600582815481106104f8577f4e487b7100000000000000000000000000000000000000000000000000000000600052603260045260246000fd5b906000526020600020906009020160050181905550346007600085815260200190815260200160002060003373ffffffffffffffffffffffffffffffffffffffff1673ffffffffffffffffffffffffffffffffffffffff16815260200190815260200160002054610569919061200e565b6007600085815260200190815260200160002060003373ffffffffffffffffffffffffffffffffffffffff1673ffffffffffffffffffffffffffffffffffffffff16815260200190815260200160002081905550600191505b80806105cd906121c9565b915050610407565b503373ffffffffffffffffffffffffffffffffffffffff167fbfe07da681ac99ed76dd1a5660057097cab44710a3778466c670e90e2cfd4f69348361064f576040518060400160405280601081526020017f46756e64547970654e6f74466f756e6400000000000000000000000000000000815250610686565b6040518060400160405280600d81526020017f455448206465706f7369746564000000000000000000000000000000000000008152505b604051610694929190611e8f565b60405180910390a25050565b60045481565b606060008251905060005b8181101561082a576000600260009054906101000a900473ffffffffffffffffffffffffffffffffffffffff1673ffffffffffffffffffffffffffffffffffffffff16636352211e868481518110610732577f4e487b7100000000000000000000000000000000000000000000000000000000600052603260045260246000fd5b60200260200101516040518263ffffffff1660e01b81526004016107569190611e74565b60206040518083038186803b15801561076e57600080fd5b505afa158015610782573d6000803e3d6000fd5b505050506040513d601f19601f820116820180604052508101906107a6919061186e565b90503373ffffffffffffffffffffffffffffffffffffffff168173ffffffffffffffffffffffffffffffffffffffff1614610816576040517f08c379a000000000000000000000000000000000000000000000000000000000815260040161080d90611e14565b60405180910390fd5b508080610822906121c9565b9150506106b1565b50600060058054905067ffffffffffffffff811115610872577f4e487b7100000000000000000000000000000000000000000000000000000000600052604160045260246000fd5b6040519080825280602002602001820160405280156108a05781602001602082028036833780820191505090505b50905060005b82811015610b05576000600260009054906101000a900473ffffffffffffffffffffffffffffffffffffffff1673ffffffffffffffffffffffffffffffffffffffff16634cb9705c878481518110610927577f4e487b7100000000000000000000000000000000000000000000000000000000600052603260045260246000fd5b60200260200101516040518263ffffffff1660e01b815260040161094b9190611e74565b60206040518083038186803b15801561096357600080fd5b505afa158015610977573d6000803e3d6000fd5b505050506040513d601f19601f8201168201806040525081019061099b91906118d8565b905060005b600580549050811015610af057600581815481106109e7577f4e487b7100000000000000000000000000000000000000000000000000000000600052603260045260246000fd5b906000526020600020906009020160080160009054906101000a900460e01b7bffffffffffffffffffffffffffffffffffffffffffffffffffffffff1916827bffffffffffffffffffffffffffffffffffffffffffffffffffffffff19161415610add5760058181548110610a85577f4e487b7100000000000000000000000000000000000000000000000000000000600052603260045260246000fd5b906000526020600020906009020160000154848481518110610ad0577f4e487b7100000000000000000000000000000000000000000000000000000000600052603260045260246000fd5b6020026020010181815250505b8080610ae8906121c9565b9150506109a0565b50508080610afd906121c9565b9150506108a6565b508092505050919050565b60018054610b1d90612166565b80601f0160208091040260200160405190810160405280929190818152602001828054610b4990612166565b8015610b965780601f10610b6b57610100808354040283529160200191610b96565b820191906000526020600020905b815481529060010190602001808311610b7957829003601f168201915b505050505081565b60606005805480602002602001604051908101604052809291908181526020016000905b82821015610df657838290600052602060002090600902016040518061012001604052908160008201548152602001600182018054610c0090612166565b80601f0160208091040260200160405190810160405280929190818152602001828054610c2c90612166565b8015610c795780601f10610c4e57610100808354040283529160200191610c79565b820191906000526020600020905b815481529060010190602001808311610c5c57829003601f168201915b50505050508152602001600282018054610c9290612166565b80601f0160208091040260200160405190810160405280929190818152602001828054610cbe90612166565b8015610d0b5780601f10610ce057610100808354040283529160200191610d0b565b820191906000526020600020905b815481529060010190602001808311610cee57829003601f168201915b505050505081526020016003820160009054906101000a900473ffffffffffffffffffffffffffffffffffffffff1673ffffffffffffffffffffffffffffffffffffffff1673ffffffffffffffffffffffffffffffffffffffff168152602001600482015481526020016005820154815260200160068201548152602001600782015481526020016008820160009054906101000a900460e01b7bffffffffffffffffffffffffffffffffffffffffffffffffffffffff19167bffffffffffffffffffffffffffffffffffffffffffffffffffffffff19168152505081526020019060010190610bc2565b50505050905090565b60026000541415610e45576040517f08c379a0000000000000000000000000000000000000000000000000000000008152600401610e3c90611e54565b60405180910390fd5b60026000819055506000600260009054906101000a900473ffffffffffffffffffffffffffffffffffffffff1673ffffffffffffffffffffffffffffffffffffffff16636352211e846040518263ffffffff1660e01b8152600401610eaa9190611e74565b60206040518083038186803b158015610ec257600080fd5b505afa158015610ed6573d6000803e3d6000fd5b505050506040513d601f19601f82011682018060405250810190610efa919061186e565b90503373ffffffffffffffffffffffffffffffffffffffff168173ffffffffffffffffffffffffffffffffffffffff1614610f6a576040517f08c379a0000000000000000000000000000000000000000000000000000000008152600401610f6190611e14565b60405180910390fd5b6000600260009054906101000a900473ffffffffffffffffffffffffffffffffffffffff1673ffffffffffffffffffffffffffffffffffffffff16634cb9705c856040518263ffffffff1660e01b8152600401610fc79190611e74565b60206040518083038186803b158015610fdf57600080fd5b505afa158015610ff3573d6000803e3d6000fd5b505050506040513d601f19601f8201168201806040525081019061101791906118d8565b905060005b6005805490508110156116465760058181548110611063577f4e487b7100000000000000000000000000000000000000000000000000000000600052603260045260246000fd5b90600052602060002090600902016000015484141561163357600581815481106110b6577f4e487b7100000000000000000000000000000000000000000000000000000000600052603260045260246000fd5b906000526020600020906009020160080160009054906101000a900460e01b7bffffffffffffffffffffffffffffffffffffffffffffffffffffffff1916827bffffffffffffffffffffffffffffffffffffffffffffffffffffffff19161415611632576000600660006005848154811061115a577f4e487b7100000000000000000000000000000000000000000000000000000000600052603260045260246000fd5b906000526020600020906009020160000154815260200190815260200160002060003373ffffffffffffffffffffffffffffffffffffffff1673ffffffffffffffffffffffffffffffffffffffff16815260200190815260200160002054146111f8576040517f08c379a00000000000000000000000000000000000000000000000000000000081526004016111ef90611df4565b60405180910390fd5b60058181548110611232577f4e487b7100000000000000000000000000000000000000000000000000000000600052603260045260246000fd5b9060005260206000209060090201600701546005828154811061127e577f4e487b7100000000000000000000000000000000000000000000000000000000600052603260045260246000fd5b906000526020600020906009020160060154600583815481106112ca577f4e487b7100000000000000000000000000000000000000000000000000000000600052603260045260246000fd5b9060005260206000209060090201600501546112e69190612064565b11611326576040517f08c379a000000000000000000000000000000000000000000000000000000000815260040161131d90611dd4565b60405180910390fd5b60058181548110611360577f4e487b7100000000000000000000000000000000000000000000000000000000600052603260045260246000fd5b906000526020600020906009020160070154600582815481106113ac577f4e487b7100000000000000000000000000000000000000000000000000000000600052603260045260246000fd5b9060005260206000209060090201600601546113c8919061200e565b60058281548110611402577f4e487b7100000000000000000000000000000000000000000000000000000000600052603260045260246000fd5b90600052602060002090600902016006018190555060058181548110611451577f4e487b7100000000000000000000000000000000000000000000000000000000600052603260045260246000fd5b90600052602060002090600902016007015460066000600584815481106114a1577f4e487b7100000000000000000000000000000000000000000000000000000000600052603260045260246000fd5b906000526020600020906009020160000154815260200190815260200160002060003373ffffffffffffffffffffffffffffffffffffffff1673ffffffffffffffffffffffffffffffffffffffff168152602001908152602001600020819055503373ffffffffffffffffffffffffffffffffffffffff166108fc60058381548110611556577f4e487b7100000000000000000000000000000000000000000000000000000000600052603260045260246000fd5b9060005260206000209060090201600701549081150290604051600060405180830381858888f19350505050158015611593573d6000803e3d6000fd5b503373ffffffffffffffffffffffffffffffffffffffff167f56b8c7241bbf92c9d8c0ee316eb6ab249fec0ac956bef8541ec03650498526b260058381548110611606577f4e487b7100000000000000000000000000000000000000000000000000000000600052603260045260246000fd5b9060005260206000209060090201600701546040516116259190611ebf565b60405180910390a2611646565b5b808061163e906121c9565b91505061101c565b50505060016000819055505050565b6001816000016000828254019250508190555050565b600081600001549050919050565b82805461168590612166565b90600052602060002090601f0160209004810192826116a757600085556116ee565b82601f106116c057805160ff19168380011785556116ee565b828001600101855582156116ee579182015b828111156116ed5782518255916020019190600101906116d2565b5b5090506116fb91906116ff565b5090565b5b80821115611718576000816000905550600101611700565b5090565b600061172f61172a84611f12565b611eed565b9050808382526020820190508285602086028201111561174e57600080fd5b60005b8581101561177e57816117648882611859565b845260208401935060208301925050600181019050611751565b5050509392505050565b600061179b61179684611f3e565b611eed565b9050828152602081018484840111156117b357600080fd5b6117be848285612124565b509392505050565b6000815190506117d5816123f2565b92915050565b600082601f8301126117ec57600080fd5b81356117fc84826020860161171c565b91505092915050565b60008135905061181481612409565b92915050565b60008151905061182981612409565b92915050565b600082601f83011261184057600080fd5b8135611850848260208601611788565b91505092915050565b60008135905061186881612420565b92915050565b60006020828403121561188057600080fd5b600061188e848285016117c6565b91505092915050565b6000602082840312156118a957600080fd5b600082013567ffffffffffffffff8111156118c357600080fd5b6118cf848285016117db565b91505092915050565b6000602082840312156118ea57600080fd5b60006118f88482850161181a565b91505092915050565b6000806000806080858703121561191757600080fd5b600085013567ffffffffffffffff81111561193157600080fd5b61193d8782880161182f565b945050602085013567ffffffffffffffff81111561195a57600080fd5b6119668782880161182f565b935050604061197787828801611859565b925050606061198887828801611805565b91505092959194509250565b6000602082840312156119a657600080fd5b60006119b484828501611859565b91505092915050565b600080604083850312156119d057600080fd5b60006119de85828601611859565b92505060206119ef85828601611859565b9150509250929050565b6000611a058383611c69565b905092915050565b6000611a198383611d35565b60208301905092915050565b611a2e81612098565b82525050565b6000611a3f82611f8f565b611a498185611fca565b935083602082028501611a5b85611f6f565b8060005b85811015611a975784840389528151611a7885826119f9565b9450611a8383611fb0565b925060208a01995050600181019050611a5f565b50829750879550505050505092915050565b6000611ab482611f9a565b611abe8185611fdb565b9350611ac983611f7f565b8060005b83811015611afa578151611ae18882611a0d565b9750611aec83611fbd565b925050600181019050611acd565b5085935050505092915050565b611b10816120aa565b82525050565b611b1f81612100565b82525050565b6000611b3082611fa5565b611b3a8185611fec565b9350611b4a818560208601612133565b611b538161229f565b840191505092915050565b6000611b6982611fa5565b611b738185611ffd565b9350611b83818560208601612133565b611b8c8161229f565b840191505092915050565b6000611ba4601b83611ffd565b9150611baf826122b0565b602082019050919050565b6000611bc7602083611ffd565b9150611bd2826122d9565b602082019050919050565b6000611bea602383611ffd565b9150611bf582612302565b604082019050919050565b6000611c0d602683611ffd565b9150611c1882612351565b604082019050919050565b6000611c30601f83611ffd565b9150611c3b826123a0565b602082019050919050565b6000611c53601783611ffd565b9150611c5e826123c9565b602082019050919050565b600061012083016000830151611c826000860182611d35565b5060208301518482036020860152611c9a8282611b25565b91505060408301518482036040860152611cb48282611b25565b9150506060830151611cc96060860182611a25565b506080830151611cdc6080860182611d35565b5060a0830151611cef60a0860182611d35565b5060c0830151611d0260c0860182611d35565b5060e0830151611d1560e0860182611d35565b50610100830151611d2a610100860182611b07565b508091505092915050565b611d3e816120f6565b82525050565b611d4d816120f6565b82525050565b60006020820190508181036000830152611d6d8184611a34565b905092915050565b60006020820190508181036000830152611d8f8184611aa9565b905092915050565b6000602082019050611dac6000830184611b16565b92915050565b60006020820190508181036000830152611dcc8184611b5e565b905092915050565b60006020820190508181036000830152611ded81611b97565b9050919050565b60006020820190508181036000830152611e0d81611bba565b9050919050565b60006020820190508181036000830152611e2d81611bdd565b9050919050565b60006020820190508181036000830152611e4d81611c00565b9050919050565b60006020820190508181036000830152611e6d81611c23565b9050919050565b6000602082019050611e896000830184611d44565b92915050565b6000604082019050611ea46000830185611d44565b8181036020830152611eb68184611b5e565b90509392505050565b6000604082019050611ed46000830184611d44565b8181036020830152611ee581611c46565b905092915050565b6000611ef7611f08565b9050611f038282612198565b919050565b6000604051905090565b600067ffffffffffffffff821115611f2d57611f2c612270565b5b602082029050602081019050919050565b600067ffffffffffffffff821115611f5957611f58612270565b5b611f628261229f565b9050602081019050919050565b6000819050602082019050919050565b6000819050602082019050919050565b600081519050919050565b600081519050919050565b600081519050919050565b6000602082019050919050565b6000602082019050919050565b600082825260208201905092915050565b600082825260208201905092915050565b600082825260208201905092915050565b600082825260208201905092915050565b6000612019826120f6565b9150612024836120f6565b9250827fffffffffffffffffffffffffffffffffffffffffffffffffffffffffffffffff0382111561205957612058612212565b5b828201905092915050565b600061206f826120f6565b915061207a836120f6565b92508282101561208d5761208c612212565b5b828203905092915050565b60006120a3826120d6565b9050919050565b60007fffffffff0000000000000000000000000000000000000000000000000000000082169050919050565b600073ffffffffffffffffffffffffffffffffffffffff82169050919050565b6000819050919050565b600061210b82612112565b9050919050565b600061211d826120d6565b9050919050565b82818337600083830152505050565b60005b83811015612151578082015181840152602081019050612136565b83811115612160576000848401525b50505050565b6000600282049050600182168061217e57607f821691505b6020821081141561219257612191612241565b5b50919050565b6121a18261229f565b810181811067ffffffffffffffff821117156121c0576121bf612270565b5b80604052505050565b60006121d4826120f6565b91507fffffffffffffffffffffffffffffffffffffffffffffffffffffffffffffffff82141561220757612206612212565b5b600182019050919050565b7f4e487b7100000000000000000000000000000000000000000000000000000000600052601160045260246000fd5b7f4e487b7100000000000000000000000000000000000000000000000000000000600052602260045260246000fd5b7f4e487b7100000000000000000000000000000000000000000000000000000000600052604160045260246000fd5b6000601f19601f8301169050919050565b7f4e6f7420456e6f7567682046756e6420746f2077697468647261770000000000600082015250565b7f416c7265616479205769746864726177656420666f7220746869732066756e64600082015250565b7f43726564656e7461696c73206e6f74206f776e6564206279206d73672e73656e60008201527f6465720000000000000000000000000000000000000000000000000000000000602082015250565b7f526571756972656564206d696e696d6d756d20302e30312045746820746f204460008201527f65706f7369740000000000000000000000000000000000000000000000000000602082015250565b7f5265656e7472616e637947756172643a207265656e7472616e742063616c6c00600082015250565b7f466f756e64696e67205465616d2077697468647261776e000000000000000000600082015250565b6123fb81612098565b811461240657600080fd5b50565b612412816120aa565b811461241d57600080fd5b50565b612429816120f6565b811461243457600080fd5b5056fea264697066735822122054cd00545d73a6e11a279ee9d17b0ffb7795e790c2b1e87fc35ae1b32bd09d3264736f6c63430008040033",
  "linkReferences": {},
  "deployedLinkReferences": {}
}